:10000000F4C018C117C116C115C114C113C112C162
:1000100011C1DAC40FC10EC10DC10CC11FC50AC187
:1000200009C108C107C18B036D034A032303F7020B
:10003000C9029802650232020002D001A1017601D4
:100040004E012A010901EB00D100B900A400920081
:100050008200740067003A200046616E2054657388
:100060007400536563004C4344206261636B6C69A8
:1000700074650050617573650046616E2074696D2A
:100080006500576F726B0046616E2074696D650084
:100090006B2C4200436F7272656374205741544564
:1000A000522074DF006B2C4200436F7272656374E0
:1000B000204149522074DF005468726573686F6C88
:1000C000640046616E537065656432005370656507
:1000D00064206D61780046616E005761746572003E
:1000E00048797374657265732E0054617267657424
:1000F0000048797374657265732E0054656D7000E5
:100100005761726D696E67005761746572204D6149
:100110007800436F6F6C005761746572204D696E93
:1001200000486561740045786974005365747570A2
:100130003A2000332E446F776E00322E4F6B003121
:100140002E557000566164696D204B756C616B6F44
:100150007628632900312E30330046616E636F6963
:100160006C2076002C573A00436F6F6C0048656135
:1001700074005761726D00417E004F464620005367
:10018000657474696E67732073617665642E000010
:10019000000000000000000004050700000000004F
:1001A00000000000000000000000380035003200B0
:1001B000000000003700340031000404040404048B
:1001C0000404020202020202030303030303020205
:1001D00003010204081020408001020408102001DD
:1001E0000204081020408040C30B11241FBECFE53D
:1001F000D4E0DEBFCDBF10E0A0E6B0E0E8E3F9E177
:1002000002C005900D92AA38B107D9F721E0AAE8FB
:10021000B0E001C01D92AD30B207E1F710E0C5EFCC
:10022000D0E003C02197FE017FDBC43FD107D1F7A7
:1002300085D480CBE5CE90E0FC01EF52FE4F2491B7
:1002400086549E4FFC018491882399F090E0880F9A
:10025000991FFC01E055FE4FA591B491FC01EA55B0
:10026000FE4F859194918FB7F894EC91E22BEC932B
:100270008FBF089590E0FC01E157FE4F3491FC01DF
:10028000EF52FE4F2491FC01E654FE4FE491EE2321
:10029000E1F0332349F03530C9F03730D1F0343054
:1002A00019F48FB58F778FBDF0E0EE0FFF1FEA5581
:1002B000FE4FA591B4918FB7F89461110EC09C9137
:1002C000E22FE095E923EC938FBF08958FB58F7DE2
:1002D000EACF85B58F7D85BDE7CFEC91E22BF3CFDB
:1002E000000000008330910528F0880F991F0597C2
:1002F0000197F1F708953FB7F8948091F10090913C
:10030000F200A091F300B091F40022B708B600FE0D
:1003100005C02F3F19F00196A11DB11D3FBFBA2F97
:10032000A92F982F8827BC01CD01620F711D811D57
:10033000911D43E0660F771F881F991F4A95D1F7DB
:1003400008958F929F92AF92BF92CF92DF92EF92D9
:10035000FF924B015C01CFDF6B017C018895A89572
:10036000CADF6C197D098E099F09683E73408105BB
:100370009105A0F321E0821A9108A108B10888EE46
:10038000C80E83E0D81EE11CF11C81149104A10465
:10039000B10431F7FF90EF90DF90CF90BF90AF9016
:1003A0009F908F900895AF92BF92CF92DF92EF927D
:1003B000FF920F931F93CF93DF936C017B018B010F
:1003C000040F151FEB015E01AE18BF08C017D1075F
:1003D00059F06991D601ED91FC910190F081E02DE9
:1003E000C6010995892B79F7C501DF91CF911F913E
:1003F0000F91FF90EF90DF90CF90BF90AF90089556
:1004000090919F00891708F4982F80918E0089178A
:10041000E1F090938E008091B200911102C0809122
:10042000B3008093930060E0913029F48AE022DFEA
:1004300061E089E01FCF89E0923021F41BDF61E0A9
:100440008AE0F8CF17DF60E0FBCF0895CF9380916B
:10045000960081110FC0C5E680919100882351F06C
:100460006AE070E080E090E06CDFC150A9F781E0C5
:100470008093960066E970E080E090E0CF9161CFD4
:10048000CF93C8EC80919100882341F0C15031F0A6
:1004900064E670E080E090E054DFF4CF64E670E062
:1004A00080E090E0CF914DCFCF93DF93EC0160E0FF
:1004B0008E81E0DE81E090E013DF61E08E81DADEA4
:1004C00081E090E00DDF60E08E81DF91CF91D2CEB0
:1004D000CF92DF92EF92FF920F931F93CF93DF9310
:1004E0006C017C0187E0E80EF11CD0E0C0E0062F33
:1004F00010E0B8010C2E02C0759567950A94E2F7DA
:100500006170F70181917F01B5DE2196C430D1057C
:1005100081F7C601DF91CF911F910F91FF90EF906E
:10052000DF90CF90C1CFCF92DF92EF92FF920F93E7
:100530001F93CF93DF93EC01F62E642F8C819ADE0C
:100540008D818F3F11F060E095DE0F2D10E08F85DB
:1005500084FF23C06E0187E0C80ED11CF12CE12C72
:10056000B8010E2C02C0759567950A94E2F7617088
:10057000F60181916F017EDEFFEFEF1AFF0A88E03E
:10058000E816F10469F7CE01DF91CF911F910F9129
:10059000FF90EF90DF90CF9087CFB80184E0759502
:1005A00067958A95E1F7CE0193DF6F2DCE01DF913C
:1005B000CF911F910F91FF90EF90DF90CF9088CF58
:1005C00040E0682F85EF90E0AEDF82E390E088CED8
:1005D00081E0F6DF62E070E080E090E0B2CE9091E2
:1005E0000801891710F08FEF890FE82FF0E0EB502A
:1005F000FF4F84898068E4CF41E095DF82E390E09B
:100600006FDE81E090E008950F931F93CF93DF9307
:100610008C01D0E0C0E0F801EC0FFD1F649166236F
:1006200039F085EF90E0E8DF892B11F02196F3CFC8
:10063000CE01DF91CF911F910F910895682F85EF23
:1006400090E0DACF089590E080E008958F929F9235
:10065000AF92BF920F931F93CF93DF93CDB7DEB7C7
:10066000A1970FB6F894DEBF0FBECDBF19A24230DE
:1006700008F44AE08E010F5D1F4F842E912CB12C9F
:10068000A12CA501940106D9E62FB901CA01EA30CF
:100690003CF5E05DD801EE938D01232B242B252B17
:1006A00081F790E080E0109761F0FD01019000205B
:1006B000E9F73197AF014A1B5B0BBD0185EF90E075
:1006C00072DEA1960FB6F894DEBF0FBECDBFDF91EC
:1006D000CF911F910F91BF90AF909F908F900895F1
:1006E000E95CD8CF682F70E090E080E04AE0AECFC0
:1006F000CF92DF92EF92FF92CF93DF936C01990F2D
:10070000EE08FF08F7FE15C08DE298DFEC016627C2
:100710007727CB016C197D098E099F094AE096DF86
:100720008C0F9D1FDF91CF91FF90EF90DF90CF90C6
:1007300008954AE0C701B601DF91CF91FF90EF9095
:10074000DF90CF9083CFCF93DF93EC0197FF05C06D
:100750008DE274DFD195C195D109CE016AE070E0D8
:1007600086D8EC01CB01C4DF8EE268DFCE01DF91D9
:10077000CF91BECF2DDF8BE291E046DFE0918C0080
:10078000EE30B8F40E2E000CFF0BE853FC4F09942A
:100790000DC030C037C03EC045C04CC063C071C042
:1007A00051C058C079C080C087C08EC086E291E039
:1007B0002BDF80918D00882309F4C3C086E590E08B
:1007C00023DFE0918C00E150ED3008F0BAC00E2E2E
:1007D000000CFF0BE351FC4F09947CC080C084C027
:1007E00088C08CC098C09CC08EC090C09EC0A0C065
:1007F000A2C0A4C081E291E007DF81E0F0DE87E1E2
:1008000091E0D6CF82E191E0FFDE81E0E8DE88E092
:1008100091E0CECF80E091E0F7DE81E0E0DE8BEF8B
:1008200090E0C6CF81EF90E0EFDE81E0D8DE8AEE87
:1008300090E0BECF80EE90E0E7DE81E0D0DE8AED92
:1008400090E0B6CF86ED90E0DFDE81E0C8DE8CEC94
:1008500090E0AECF82EC90E0D7DE81E0C0DE88EBA6
:1008600090E0A6CF89EA90E0CFDE81E0B8DE8AE0B2
:1008700090E03EDF85EA90E0C7DE8BE69DE038DF62
:1008800098CF84E990E0C0DE81E0A9DE8AE090E0C4
:100890002FDF80E990E0F0CF87E890E0B5DE81E0DF
:1008A0009EDE82E890E084CF89E790E0ADDE81E0D3
:1008B00096DE83E790E07CCF86E690E0A5DE81E0DF
:1008C0008EDE82E690E074CF89E590E09DDE81E0E7
:1008D00086DE6FCF8091A4009091A50034CF8091E7
:1008E000A6009091A700FACF8091B4009091B50036
:1008F000F5CF8091A8009091A900F0CF8091AA0037
:100900009091AB00EBCF80919F00ECCE8091AC003A
:100910009091AD00E3CF8091AE009091AF00DECF1B
:100920008091B0009091B100D9CF8091B200EDCF0D
:100930008091B300EACF8091B600E7CF80918E001E
:10094000E4CF08950F931F93CF93DF938C01EB01B6
:100950003FDE40E150E065E770E085EF90E023DDA9
:1009600081E03DDE809160008B3F30F464E670E012
:1009700080E090E0E6DCF6CFC80146DE80916000C2
:100980008B3F30F064E670E080E090E0DADCF6CF98
:1009900068EC70E080E090E0D4DC60916000CE0113
:1009A00041D743E050E066E870E085EF90E0FBDC83
:1009B0008091600097DE68E873E180E090E0DF916D
:1009C000CF911F910F91BDCC1F920F920FB60F9236
:1009D00011242F933F938F939F93AF93BF93809155
:1009E000ED009091EE00A091EF00B091F0003091F9
:1009F000EC0026E0230F2D3768F129E8230F03963A
:100A0000A11DB11D2093EC008093ED009093EE00AA
:100A1000A093EF00B093F0008091F1009091F2006C
:100A2000A091F300B091F4000196A11DB11D809337
:100A3000F1009093F200A093F300B093F400BF9103
:100A4000AF919F918F913F912F910F900FBE0F907B
:100A50001F9018950296A11DB11DD4CF1F920F9221
:100A60000FB60F9211242F933F934F938F939F9321
:100A7000EF93FF9384B125B130E0322F2227820F0C
:100A8000932F911DE0918B00E230E8F421E02E0FCE
:100A900020938B00F0E0EE0FFF1FE851FF4F918392
:100AA000808381E4223009F482E487B9369AFF9189
:100AB000EF919F918F914F913F912F910F900FBE8A
:100AC0000F901F9018959695879596958795382F36
:100AD0008093600020919A00281700F5482F421B50
:100AE000242F203120F120919B002317C8F4482F98
:100AF000421B242F2031E8F020919C00231790F412
:100B0000821B803190F080E090918A00981313C08E
:100B10008093910010928B0080E4C7CF281BE1CF17
:100B2000281BE8CF281B203170F784E0EDCF81E04F
:100B3000EBCF82E0E9CF80938A00ECCF789483B743
:100B4000836083BF89B7816089BFC2E0CEBD8EB5A7
:100B500081608EBD8FB581608FBD85B5846085BD98
:100B600085B5806485BD86E886B91AB885B7806882
:100B700085BF88E19FE00FB6F894A89581BD0FBEB0
:100B800091BDAA9A89E057DB8AE055DB8BE053DB05
:100B900061E08BE06FDB10928B0090E497B98FECF3
:100BA00086B980910401886080930401C093080194
:100BB0001092090190930A0180E180930B0180E576
:100BC00080930C018091F90036DB8091FA008F3F11
:100BD00009F031DB8091FB002EDBC5EFD0E09E01F8
:100BE000255F30408091040184FF09C088E090E0D7
:100BF00021962817390734F48E811DDBF0CF84E06D
:100C000090E0F6CF62E370E080E090E09ADB60E095
:100C10008091F9002FDB60E08091FB002BDB80915D
:100C2000FA008F3F11F060E025DB8091040184FD24
:100C300094C063E085EF90E04BDC65E070E080E01D
:100C400090E07FDB63E085EF90E042DC65E070E000
:100C500080E090E076DB63E085EF90E039DC86E9C8
:100C600090E03EDB62E085EF90E032DC80910401B1
:100C70008062A6DC84E0809305018CE0A1DCA8DC26
:100C8000C2E0C093060186E09BDC8AE591E0BCDC13
:100C900085E591E0B9DC81E0A2DC84E491E0B4DC9C
:100CA00084E090E0A8D58F3F09F068C08EE1EAE9C2
:100CB000F0E0DF01682F1D926A95E9F720EF30E040
:100CC0003093A1002093A00028EC30E03093A300E3
:100CD0002093A20022E231E03093A5002093A400EB
:100CE0002EEB30E03093A7002093A6002AEA30E0F4
:100CF0003093B5002093B4002AE030E03093A9008F
:100D00002093A8002FE030E03093AB002093AA009E
:100D1000C0939F0029E130E03093AD002093AC00F8
:100D20008093B2009CE39093B3008093B6004EE1B1
:100D300050E060E070E0CF0166D560E070E08FE3E6
:100D400091E000DE61E070E08AE391E0FBDD62E0CB
:100D500070E083E391E0F6DD15C0806231DC84E968
:100D600091E1BEDA8091040180622ADC86E990E09C
:100D7000B7DA80910401806223DC78CF8091600033
:100D80008A30D8F210928A00109291004EE150E021
:100D900060E070E08AE990E01ED58091B600809313
:100DA0009500C5E0C093980061E070E080E090E0BD
:100DB000C8DA8091E8009091E90046E250E0509353
:100DC000C1004093C00027E12093C2009093C60069
:100DD0008093C5009093C8008093C7009093CA0089
:100DE0008093C9009093CC008093CB009093CE0069
:100DF0008093CD00C89FB001C99F700D11247093DE
:100E0000C4006093C300809590959093BB0080933D
:100E1000BA001092CF008091EA009091EB005093BD
:100E2000D9004093D8002093DA009093DE0080939D
:100E3000DD009093E0008093DF009093E2008093C8
:100E4000E1009093E4008093E3009093E6008093A8
:100E5000E500C89F9001C99F300D11243093DC003C
:100E60002093DB00809590959093D3008093D200DF
:100E70001092E700ACE02A2EB5E06B2E712CC2E395
:100E80004C2ED0E08D2ED0E09D2EE8EC5E2EFDE0C5
:100E90003F2E65E070E080E090E053DA68EEA62E29
:100EA00060E0B62EC8EBD0E07EEAC72E70E0D72E09
:100EB000F12CE12CF894D5012D913D915D017894B0
:100EC0001F898B859C85820F931F2E9CF0012F9C80
:100ED000F00D1124E10FF11DEE0FFF1FE854FF4F3D
:100EE00045855685841B950B9C878B873687258780
:100EF000B301A9D41F5F153059F11F8B8A819B81E3
:100F00006817790709F43AC07B836A830A8510E081
:100F1000412F50E0802F90E09C01241B350BA885C9
:100F2000B98522303105C4F0840F951F95958795BA
:100F3000FC01EE0FFF1FEA0FFB1F259134912617CE
:100F4000370740F0182FE4CFEE24E394F12CB2CF12
:100F50001F8AD4CF082FDECFFA01EE0FFF1FEA0F52
:100F6000FB1F259134912617370708F040C0149DC8
:100F7000C00111248A5F910999838883F601219128
:100F800031916F0188819981820F931F99838883A2
:100F90006896EA94EF28C1F680919900815009F48F
:100FA00053C08093990080919100882369F08091CB
:100FB0009500811109C08091B600882329F08093A3
:100FC000950061E08BE056D98091910081FFD1C2FC
:100FD000CEE180919100882309F4CDC3C15009F47A
:100FE000A0C364E670E080E090E0ABD9F2CFFC01F2
:100FF000EE0FFF1FEA0FFB1F45915491049D8001E6
:1010000011246417750728F40659110919830883F8
:10101000B5CFF901E41BF50B085C11093097B1F36A
:101020009B01241B350BA2E3B0E072D49F013695DF
:101030002795620F731F811D911D9F0150E040E0B5
:101040004BD4021B130BE2CF509299008091980071
:10105000882319F08150809398008091970088230D
:1010600039F0815080939700811102C01092960050
:101070008091950081508E3F38F4809395008111C6
:1010800003C060E08BE0F6D880919400882399F04B
:1010900081508093940081110EC09ADA4EE150E0A5
:1010A00060E070E08AE990E0AED38FE791E0ACDADF
:1010B00082E08093980080919300882319F08150FA
:1010C0008093930080919D00811111C080918E00CA
:1010D000882311F080E094D91092930080919200BF
:1010E000882309F487C08150809392005CCFE091FF
:1010F000D000F091D10050919E00252F30E0D90111
:10110000AA0FBB1FAC55BF4F8D919C91BF01681BAF
:10111000790BCB01513019F491958195910960912A
:10112000AA007091AB0086179707A4F110928F0068
:101130008091B8009091B90040918F00442349F00C
:10114000511107C0A091B400B091B500A817B9071C
:1011500024F4A0919000AA2391F0680F791FA1E0D8
:101160006E177F070CF0A0E0A0939000442329F0B5
:1011700041E06E177F070CF440E040938F004091F0
:1011800093004111ABCF40918F00442351F080E098
:1011900037D9A4CF181619065CF281E080938F002E
:1011A000C7CF220F331FF901E056FF4F2081318155
:1011B000821B930B513019F491958195910997FDFC
:1011C00003C010929000E3CF9195819591092091F1
:1011D000A8003091A900281739070CF07FCF209183
:1011E000AC003091AD002817390714F482E0D0CF5D
:1011F00081E0CECF8091B700882309F4D4CE6091EE
:101200009E004091B8005091B9008091A800909143
:10121000A9006623D9F02091A0003091A100281BDD
:10122000390B421753077CF4E091D000F091D100C4
:101230002091A4003091A5002E173F0724F41092AE
:101240009E008FEF51CF613009F4ADCE2091A20006
:101250003091A300820F931F841795070CF0A3CE43
:101260002091D0003091D1008091A6009091A700EC
:10127000281739070CF097CE81E080939E00E1CFCC
:1012800050929900D15009F42DC180919700882384
:1012900009F45BC2815080939700811156C210926D
:1012A000960053C280918C00882309F41BC1C0931F
:1012B0008D005DC28091910080FF9BC0E0918C0009
:1012C00080918D00882309F48AC0E150ED3008F048
:1012D00081C00E2E000CFF0BE159F64F09940CC093
:1012E00015C01EC027C030C04BC054C037C03EC060
:1012F0005BC060C065C06AC08091A4009091A500E9
:1013000001969093A5008093A40064C08091A600EC
:101310009091A70001969093A7008093A6005AC0D1
:101320008091B4009091B50001969093B5008093A0
:10133000B40050C08091A8009091A90001969093AC
:10134000A9008093A80046C08091AA009091AB00AC
:1013500001969093AB008093AA003CC080919F00BF
:101360008230C0F58F5F80939F0034C08091AC00C5
:101370009091AD0001969093AD008093AC002AC08F
:101380008091AE009091AF0001969093AF00809352
:10139000AE0020C08091B0009091B1000196909372
:1013A000B1008093B00016C08091B2008F5F80932F
:1013B000B20010C08091B3008F5F8093B3000AC069
:1013C0008091B6008F5F8093B60004C080918E003C
:1013D0008F5F16D83BD8CED9C0939700CAC1EF5FB4
:1013E000EE301CF4E0938C0002C010928C0048D8C0
:1013F000F2CF8091910082FF9CC1E0918C0080919E
:101400008D00E150882309F468C0ED3018F70E2EE6
:10141000000CFF0BE35FF54F09940CC011C016C020
:101420001BC024C03EC043C02BC031C046C049C011
:101430004CC04FC08091A4009091A500019761CF4E
:101440008091A6009091A700019765CF8091B4008C
:101450009091B500019769CF8091A8009091A90063
:10146000181619060CF0B6CF019769CF8091AA0023
:101470009091AB00181619060CF0ACCF019769CF0C
:1014800080919F00882309F4A5CF81506CCF809173
:10149000AC009091AD00181619060CF09BCF019787
:1014A0006ACF8091AE009091AF0001976ECF80918E
:1014B000B0009091B100019772CF8091B20081503D
:1014C00076CF8091B300815078CF8091B600815063
:1014D0007ACF80918E0081507CCFE7FF83CF30920E
:1014E0008C0085CFCDD71092980010929400109266
:1014F00097008114910409F4CCCC82D5C6CC80919C
:101500009700811122C010929D0080919D00811151
:1015100002C010929000B4D7109298008FE0809390
:10152000940083E080939700809198008111E1CF2F
:1015300082E08093980080E052D880919D008111D4
:1015400063C08AE791E060D873C08091B7008823B8
:1015500029F01092B70010929E00D7CF80919E0084
:101560008F5F80939E00823081F681E08093B70088
:10157000F2CF8091910080FF27C080919D00882349
:1015800009F180919E0090E0DC01AA0FBB1FA056DC
:10159000BF4F2D913C911197880F991FFC01EF5877
:1015A000FF4F808191812817390724F42F5F3F4F27
:1015B0002D933C934BD7109298008FE0809394002A
:1015C00081E0B0CF5DD7F7CF8091910082FFACCFA3
:1015D00080919D008823B1F380919E0090E0DC0112
:1015E000AA0FBB1FA056BF4F2D913C911197880F9A
:1015F000991FFC01E359FF4F808191818217930766
:10160000CCF621503109D4CF8091B700882309F45A
:1016100045C087E791E0F8D780919E00811138C0DE
:1016200080919000882391F187E508D880E206D860
:101630008AE304D8C091B800D091B900D7FD02C0A8
:1016400080E2FCD7CE017FD88EE7F8D7E0919E00EC
:10165000F0E0EE0FFF1FE056FF4F8081918173D8BD
:101660008FEDECD781E0BBD780919D00882309F4F2
:101670004CC086E4E3D780918E0090918F0099232F
:1016800019F1811121C08DE2D9D71FC088E4CDCFD7
:10169000813011F483E4C9CF8FE3C7CF80919E00DE
:1016A00081110AC080919000882319F082E791E0AF
:1016B0004ACF8DE691E047CF813019F488E691E07A
:1016C00042CF90E015D8B4CF0DD884E691E09CD7F6
:1016D000C091D000D091D100D7FD02C080E2AED73A
:1016E000CE0131D880918F008823C9F08AE2A6D735
:1016F000E0919E00F0E0EE0FFF1FEC55FF4F808160
:10170000918121D88FED9AD7F4CE80919E008111DE
:1017100004C088E493D78EE2B7CF83E4FBCF8FE297
:10172000E6CF10928D0010928C0024D8A9D6DCE36D
:10173000C1E065E070E080E090E003D68091990020
:10174000815009F49DCD809399008091910081FF93
:10175000B1CD80918D00882309F4A4CD4EE150E0F5
:1017600060E070E08AE990E04ED010928D0002D8DF
:1017700087D6DCE3DECF80919D008111C0CE81E071
:1017800080939D00C2CEE5EFF0E01382128285E6E1
:1017900090E09183808386E084838FEF858387E068
:1017A000868382E0878383E0808784E0818785E089
:1017B000828713861486158616861786E8EBF0E076
:1017C00089E19CEF9183808313821282918F808FB5
:1017D000138E128E0895DC01CB01FC01E199FECF3E
:1017E00006C0FFBBEEBBE09A31960DB20D924150A0
:1017F0005040B8F70895E199FECF9FBB8EBBE09AA9
:1018000099278DB30895DC01A40FB51F41505040B6
:1018100040F0CB01840F951F2E9105D041505040D0
:10182000D8F70895262FE199FECF9FBB8EBBE09A93
:1018300001970DB2021631F02DBB0FB6F894E29A63
:10184000E19A0FBE0895AA1BBB1B51E107C0AA1F56
:10185000BB1FA617B70710F0A61BB70B881F991F51
:101860005A95A9F780959095BC01CD01089597FBF5
:10187000072E16F4009406D077FD08D0E4DF07FCAD
:1018800005D03EF4909581959F4F08957095619590
:101890007F4F0895A1E21A2EAA1BBB1BFD010DC0AC
:1018A000AA1FBB1FEE1FFF1FA217B307E407F50710
:1018B00020F0A21BB30BE40BF50B661F771F881FEC
:1018C000991F1A9469F760957095809590959B0182
:1018D000AC01BD01CF010895052E97FB16F40094CD
:1018E0000FD057FD05D0D6DF07FC02D046F408C064
:1018F00050954095309521953F4F4F4F5F4F08953C
:1019000090958095709561957F4F8F4F9F4F08956B
:10191000A29FB001B39FC001A39F01D0B29F700DE1
:10192000811D1124911D0895EE0FFF1F0590F49164
:08193000E02D0994F894FFCFAB
:10193800FF00000000FC02D30123032203320096BB
:10194800005E012C01536574206B6579732C20703F
:0A195800726573733A00203D200011
:00000001FF
