:10000000FEC022C121C120C11FC11EC11DC11CC112
:100010001BC1D3C419C118C117C116C118C514C159
:1000200013C112C111C1A7038C036A034303160352
:10003000E302AD0274023A020102C90194016301B4
:1000400037010F01EB00CC00B1009A00850074006D
:10005000650058004C00A7038C036A034303160392
:10006000E302AD0274023A020102C9019401630184
:1000700037010F01EB00CC00B1009A00850074003D
:10008000650058004C003A200046616E20546573AC
:10009000740050617573650046616E2074696D650A
:1000A00000576F726B0046616E2074696D65005772
:1000B000617465722074DF00436F7272656374004F
:1000C0004169722074DF00436F727265637400547B
:1000D00068726573686F6C640046616E5370656525
:1000E0006432005370656564206D61780046616E0E
:1000F0000057617465720048797374657265732E78
:100100000054617267657400487973746572657331
:100110002E0054656D70005761726D696E670057EF
:1001200061746572204D617800436F6F6C00576198
:10013000746572204D696E00486561740045786988
:10014000740053657475703A2000332E446F776ED7
:1001500000322E4F6B00312E557000566164696D70
:10016000204B756C616B6F7628632900312E30301F
:100170000046616E636F696C2076002C573A00432D
:100180006F6F6C0048656174005761726D004F6657
:1001900066200053657474696E67732073617665B9
:1001A000642E0000000000000000000004050700AD
:1001B0000000000000000000000000000000380007
:1001C0003500320000000000370034003100040424
:1001D00004040404040402020202020203030303EF
:1001E00003030202030102040810204080010204FC
:1001F000081020010204081020408040180B112430
:100200001FBECFE5D4E0DEBFCDBF10E0A0E6B0E07A
:10021000E2EEF7E102C005900D92AA38B107D9F7D6
:1002200021E0AAE8B0E001C01D92A930B207E1F7D1
:1002300010E0CFEFD0E003C02197FE01CADACE3F35
:10024000D107D1F774D4CBCADBCE90E0FC01EB51DF
:10025000FE4F249182539E4FFC018491882399F094
:1002600090E0880F991FFC01EC53FE4FA591B491CB
:10027000FC01E654FE4F859194918FB7F894EC9170
:10028000E22BEC938FBF089590E0FC01ED55FE4FFB
:100290003491FC01EB51FE4F2491FC01E253FE4FDF
:1002A000E491EE23E1F0332349F03530C9F03730E3
:1002B000D1F0343019F48FB58F778FBDF0E0EE0FA9
:1002C000FF1FE654FE4FA591B4918FB7F8946111CA
:1002D0000EC09C91E22FE095E923EC938FBF089527
:1002E0008FB58F7DEACF85B58F7D85BDE7CFEC914A
:1002F000E22BF3CF000000008330910528F0880F37
:10030000991F05970197F1F708953FB7F8948091E9
:10031000ED009091EE00A091EF00B091F00022B7B7
:1003200008B600FE05C02F3F19F00196A11DB11DB2
:100330003FBFBA2FA92F982F8827BC01CD01620F8C
:10034000711D811D911D43E0660F771F881F991F46
:100350004A95D1F708958F929F92AF92BF92CF9214
:10036000DF92EF92FF924B015C01CFDF6B017C01CA
:100370008895A895CADF6C197D098E099F09683E8A
:10038000734081059105A0F321E0821A9108A1082C
:10039000B10888EEC80E83E0D81EE11CF11C811460
:1003A0009104A104B10431F7FF90EF90DF90CF905A
:1003B000BF90AF909F908F900895AF92BF92CF92D1
:1003C000DF92EF92FF920F931F93CF93DF936C0115
:1003D0007B018B01040F151FEB015E01AE18BF08F6
:1003E000C017D10759F06991D601ED91FC910190A8
:1003F000F081E02DC6010995892B79F7C501DF91C0
:10040000CF911F910F91FF90EF90DF90CF90BF9011
:10041000AF90089590919D00891708F4982F8091CE
:100420008E008917E1F090938E008091B0009111B9
:1004300002C08091B1008093920060E0913029F475
:100440008AE022DF61E089E01FCF89E0923021F469
:100450001BDF61E08AE0F8CF17DF60E0FBCF089593
:10046000CF938091940081110FC0C5E680919100D7
:10047000882351F06AE070E080E090E06CDFC150CA
:10048000A9F781E08093940066E970E080E090E055
:10049000CF9161CFCF93C8EC80919100882341F038
:1004A000C15031F064E670E080E090E054DFF4CFBA
:1004B00064E670E080E090E0CF914DCFCF93DF9382
:1004C000EC0160E08E81E0DE81E090E013DF61E02E
:1004D0008E81DADE81E090E00DDF60E08E81DF91D9
:1004E000CF91D2CECF92DF92EF92FF920F931F93D4
:1004F000CF93DF936C017C0187E0E80EF11CD0E024
:10050000C0E0062F10E0B8010C2E02C0759567956B
:100510000A94E2F76170F70181917F01B5DE2196BF
:10052000C430D10581F7C601DF91CF911F910F91A2
:10053000FF90EF90DF90CF90C1CFCF92DF92EF92FC
:10054000FF920F931F93CF93DF93EC01F62E642F4E
:100550008C819ADE8D818F3F11F060E095DE0F2D4A
:1005600010E08F8584FF23C06E0187E0C80ED11C88
:10057000F12CE12CB8010E2C02C0759567950A94F8
:10058000E2F76170F60181916F017EDEFFEFEF1AF5
:10059000FF0A88E0E816F10469F7CE01DF91CF91F8
:1005A0001F910F91FF90EF90DF90CF9087CFB80110
:1005B00084E0759567958A95E1F7CE0193DF6F2DFD
:1005C000CE01DF91CF911F910F91FF90EF90DF90BF
:1005D000CF9088CF40E0682F81EF90E0AEDF82E3DC
:1005E00090E088CE81E0F6DF62E070E080E090E0AD
:1005F000B2CE90910401891710F08FEF890FE82F88
:10060000F0E0EF50FF4F84898068E4CF41E095DF50
:1006100082E390E06FDE81E090E008950F931F93F6
:10062000CF93DF938C01D0E0C0E0F801EC0FFD1F09
:100630006491662339F081EF90E0E8DF892B11F0B7
:100640002196F3CFCE01DF91CF911F910F910895A5
:10065000682F81EF90E0DACF089590E080E0089570
:100660008F929F92AF92BF920F931F93CF93DF937E
:10067000CDB7DEB7A1970FB6F894DEBF0FBECDBFE2
:1006800019A2423008F44AE08E010F5D1F4F842EFC
:10069000912CB12CA12CA501940151D8E62FB901C0
:1006A000CA01EA303CF5E05DD801EE938D01232BC1
:1006B000242B252B81F790E080E0109761F0FD015D
:1006C00001900020E9F73197AF014A1B5B0BBD0198
:1006D00081EF90E072DEA1960FB6F894DEBF0FBEF8
:1006E000CDBFDF91CF911F910F91BF90AF909F90A1
:1006F0008F900895E95CD8CF682F70E090E080E09B
:100700004AE0AECFCF92DF92EF92FF92CF93DF938A
:1007100097FF17C06B017C018DE29ADFEC01662721
:100720007727CB016C197D098E099F094AE098DF74
:100730008C0F9D1FDF91CF91FF90EF90DF90CF90B6
:1007400008954AE0DF91CF91FF90EF90DF90CF9036
:1007500087CFCF93DF93EC0197FF05C08DE278DF61
:10076000D195C195D109CE016AE070E0D5D7EC01F1
:10077000072E000C880B990BC5DF8EE269DFBE01E6
:10078000DD0F880B990BDF91CF91BCCFCF932ADF80
:1007900082E491E043DFC0918C00CD30B8F4EC2FBF
:1007A0000C2E000CFF0BEA52FC4F09940CC02DC01C
:1007B00034C03BC042C049C060C067C04EC055C0D5
:1007C0006CC073C07AC08DE391E028DF80918D000A
:1007D000882309F4AEC086E890E020DFEFEFEC0F4D
:1007E000EC3008F0A6C00E2E000CFF0BE750FC4FBB
:1007F000099469C06EC072C076C07AC087C08BC0D1
:100800007CC07FC08DC08FC091C088E391E006DFBF
:1008100081E0EFDE8EE291E0D8CF89E291E0FEDE6A
:1008200081E0E7DE8FE191E0D0CF87E191E0F6DE75
:1008300081E0DFDE82E191E0C8CF88E091E0EEDE8A
:1008400081E0D7DE81E091E0C0CF87EF90E0E6DE87
:1008500081E0CFDE81EF90E0B8CF8DEE90E0DEDE7C
:1008600081E0C7DE83EE90E0B0CF89ED90E0D6DE88
:1008700081E0BFDE8FEC90E0A8CF87EC90E0CEDE89
:1008800081E0B7DE80EC90E0A0CF88EB90E0C6DEA0
:1008900081E0AFDE8FEA90E098CF86EA90E0BEDE9E
:1008A00081E0A7DE81EA90E090CF88E990E0B6DEB3
:1008B00081E09FDE82E990E088CF89E890E0AEDEBB
:1008C00081E097DE83CF8091A2009091A300CF9129
:1008D00040CF8091A4009091A500F9CF8091B20003
:1008E0009091B300F4CF8091A6009091A700EFCF34
:1008F0008091A8009091A900EACF80919D00CF91AE
:10090000FBCE8091AA009091AB00E1CF8091AC002A
:100910009091AD00DCCF8091AE009091AF00D7CF29
:100920008091B000ECCF8091B100E9CF80918E0032
:10093000E6CFCF9108950F931F93CF93DF938C0150
:10094000EB0150DE40E150E065E770E081EF90E0C0
:1009500034DD81E04EDE809160008B3F30F464E650
:1009600070E080E090E0F7DCF6CFC80157DE8091C0
:1009700060008B3F30F064E670E080E090E0EBDCFC
:10098000F6CF68EC70E080E090E0E5DC609160001C
:10099000CE019DD643E050E066E870E081EF90E044
:1009A0000CDD80916000A8DE68E873E180E090E0F3
:1009B000DF91CF911F910F91CECC1F920F920FB666
:1009C0000F9211242F933F938F939F93AF93BF93D5
:1009D0008091E9009091EA00A091EB00B091EC00C9
:1009E0003091E80026E0230F2D3768F129E8230F26
:1009F0000396A11DB11D2093E8008093E900909318
:100A0000EA00A093EB00B093EC008091ED00909190
:100A1000EE00A091EF00B091F0000196A11DB11D74
:100A20008093ED009093EE00A093EF00B093F00060
:100A3000BF91AF919F918F913F912F910F900FBEDA
:100A40000F901F9018950296A11DB11DD4CF1F9233
:100A50000F920FB60F9211242F933F934F938F93C2
:100A60009F93EF93FF9384B125B130E0322F22277B
:100A7000820F932F911DE0918B00E230E8F421E08A
:100A80002E0F20938B00F0E0EE0FFF1FEC51FF4F75
:100A90009183808381E4223009F482E487B9369A15
:100AA000FF91EF919F918F914F913F912F910F90D7
:100AB0000FBE0F901F9018959695879596958795E0
:100AC000382F8093600020919800281700F5482F58
:100AD000421B242F203120F1209199002317C8F4C4
:100AE000482F421B242F2031E8F020919A00231731
:100AF00090F4821B803190F080E090918A009813EE
:100B000013C08093910010928B0080E4C7CF281B04
:100B1000E1CF281BE8CF281B203170F784E0EDCF10
:100B200081E0EBCF82E0E9CF80938A00ECCF78942C
:100B300083B7836083BF89B7816089BFC2E0CEBDC0
:100B40008EB581608EBD8FB581608FBD85B58460A7
:100B500085BD85B5806485BD86E886B91AB885B738
:100B6000806885BF88E19FE00FB6F894A89581BDA5
:100B70000FBE91BDAA9A89E068DB8AE066DB10921D
:100B80008B0090E497B98FEC86B980910001886062
:100B900080930001C0930401109205019093060117
:100BA00080E18093070180E5809308018091F50042
:100BB0004CDB8091F6008F3F09F047DB8091F70016
:100BC00044DBC1EFD0E09E01215F30408091000105
:100BD00084FF09C088E090E021962817390734F493
:100BE0008E8133DBF0CF84E090E0F6CF62E370E0FB
:100BF00080E090E0B0DB60E08091F50045DB60E0F4
:100C00008091F70041DB8091F6008F3F11F060E0AA
:100C10003BDB8091000184FD92C063E081EF90E0B6
:100C200061DC65E070E080E090E095DB63E081EFFF
:100C300090E058DC65E070E080E090E08CDB63E001
:100C400081EF90E04FDC86E990E054DB62E081EFD9
:100C500090E048DC809100018062BCDC84E08093FD
:100C600001018CE0B7DCBEDCC2E0C093020186E08B
:100C7000B1DC81E791E0D2DC8CE691E0CFDC81E071
:100C8000B8DC8BE591E0CADC84E090E009D58F3FC9
:100C900009F066C0E8E9F0E088E1DF011D928A957D
:100CA000E9F780EF90E090939F0080939E0088EC9E
:100CB00090E09093A1008093A00082E291E0909355
:100CC000A3008093A2008EEB90E09093A500809308
:100CD000A4008AEA90E09093B3008093B2008AE087
:100CE00090E09093A7008093A6008FE090E090930F
:100CF000A9008093A800C0939D0089E190E09093A3
:100D0000AB008093AA008EE18093B0008CE38093C7
:100D1000B1004CE150E060E070E0CF01C9D460E088
:100D200070E086E591E007DE61E070E081E591E04A
:100D300002DE62E070E08AE491E0FDDD15C08062D1
:100D400049DC84E991E1D6DA80910001806242DCDD
:100D500086E990E0CFDA8091000180623BDC7ACFB7
:100D6000809160008A30D8F210928A00109291002F
:100D70004CE150E060E070E088E990E081D4C5E0AB
:100D8000C093960061E070E080E090E0E4DA80914A
:100D9000E4009091E50026E530E03093BD0020931B
:100DA000BC0027E12093BE009093C2008093C10055
:100DB0009093C4008093C3009093C6008093C500B5
:100DC0009093C8008093C7009093CA008093C90095
:100DD000C89FA001C99F500D11245093C00040939B
:100DE000BF00809590959093B7008093B6001092C5
:100DF000CB008091E6009091E70046E250E05093EE
:100E0000D5004093D4002093D6009093DA008093CD
:100E1000D9009093DC008093DB009093DE008093F8
:100E2000DD009093E0008093DF009093E2008093D8
:100E3000E100C89F9001C99F300D11243093D80064
:100E40002093D700809590959093CF008093CE000B
:100E50001092E300B5E06B2E712CC2E34C2ED0E073
:100E60008D2ED0E09D2EECE02E2EF8EC5F2EACE027
:100E70003A2E65E070E080E090E06DDA64EEA62E38
:100E800060E0B62EC4EBD0E07CEAC72E70E0D72E2F
:100E9000F12CE12CF894F501219131915F017894C6
:100EA0001F898B859C85820F931F2E9CF0012F9CA0
:100EB000F00D1124E10FF11DEE0FFF1FEC54FF4F59
:100EC00045855685841B950B9C878B8736872587A0
:100ED000B3010ED41F5F153059F11F8B8A819B819E
:100EE0006817790709F439C07B836A830A8510E0A3
:100EF000412F50E0802F90E09C01241B350BA885EA
:100F0000B98522303105C4F0840F951F95958795DA
:100F1000FC01EE0FFF1FEA0FFB1F259134912617EE
:100F2000370740F0182FE4CFEE24E394F12CB2CF32
:100F30001F8AD4CF082FDECFFA01EE0FFF1FEA0F72
:100F4000FB1F259134912617370778F5149DC001B2
:100F500011248A5F910999838883D6012D913D914F
:100F60006D0188819981820F931F99838883689688
:100F7000EA94EF28C9F680919700815009F442C0A5
:100F8000809397008091910081FF90C2CEE1809183
:100F90009100882309F41AC3C15009F41FC364E601
:100FA00070E080E090E0D7D9F2CFFC01EE0FFF1F98
:100FB000EA0FFB1F45915491049D80011124641791
:100FC000750728F40659110919830883C6CFF9015A
:100FD000E41BF50B085C11093097B1F39B01241B4E
:100FE000350BA2E3B0E0E9D39F0136952795620F58
:100FF000731F811D911D9F0150E040E0C2D3021B71
:10100000130BE2CF5092970080919600882319F03D
:1010100081508093960080919500882339F081500B
:1010200080939500811102C01092940080919300EA
:10103000882399F081508093930081110EC0D2DAF9
:101040004CE150E060E070E088E990E031D383E962
:1010500091E0E4DA82E08093960080919200882308
:1010600019F081508093920080919B00811109C0FA
:1010700080918E00882311F080E0CCD910929200EC
:1010800081CFE091CC00F091CD0050919C00252FB4
:1010900030E0D901AA0FBB1FAE55BF4F8D919C9177
:1010A000BF01681B790BCB01513019F491958195E3
:1010B00091096091A8007091A90086179707A4F183
:1010C00010928F008091B4009091B50040918F00F4
:1010D000442349F0511107C0A091B200B091B30070
:1010E000A817B90724F4A0919000AA2391F0680FE3
:1010F000791FA1E06E177F070CF0A0E0A09390008D
:10110000442329F041E06E177F070CF440E0409340
:101110008F0040919200411135CF40918F004423C0
:1011200051F080E077D92ECF181619065CF281E0D5
:1011300080938F00C7CF220F331FF901E256FF4F74
:1011400020813181821B930B513019F49195819547
:10115000910997FD03C010929000E3CF919581957E
:1011600091092091A6003091A700281739070CF0AB
:1011700009CF2091AA003091AB002817390714F449
:1011800082E0D0CF81E0CECF50929700D15009F4C9
:1011900021C180919500882309F434C28150809345
:1011A000950081112FC2109294002CC280918C0066
:1011B000882309F40FC1C0938D0036C2809191003D
:1011C00080FF94C0E0918C0080918D00882309F409
:1011D00083C0E150EC3008F07AC00E2E000CFF0BFB
:1011E000ED50F74F09940BC014C01DC026C02FC08E
:1011F0004AC053C036C03DC05AC05FC064C0809171
:10120000A2009091A30001969093A3008093A20066
:101210005EC08091A4009091A50001969093A500D6
:101220008093A40054C08091B2009091B3000196C5
:101230009093B3008093B2004AC08091A600909131
:10124000A70001969093A7008093A60040C08091CC
:10125000A8009091A90001969093A9008093A800FE
:1012600036C080919D00823090F58F5F80939D0005
:101270002EC08091AA009091AB0001969093AB0094
:101280008093AA0024C08091AC009091AD0001969B
:101290009093AD008093AC001AC08091AE00909105
:1012A000AF0001969093AF008093AE0010C0809184
:1012B000B0008F5F8093B0000AC08091B1008F5F53
:1012C0008093B10004C080918E008F5FA3D8C8D8EE
:1012D0005DDAC0939500AAC1EF5FED301CF4E09396
:1012E0008C0002C010928C00D5D8F2CF8091910072
:1012F00082FF7CC1E0918C0080918D00E1508823B9
:1013000009F463C0EC3018F70E2E000CFF0BE65703
:10131000F64F09940BC010C015C01AC023C03DC0C1
:1013200042C02AC030C045C048C04BC08091A20016
:101330009091A300019768CF8091A4009091A5009F
:1013400001976CCF8091B2009091B300019770CF5C
:101350008091A6009091A700181619060CF0B7CF3F
:10136000019770CF8091A8009091A90018161906D6
:101370000CF0ADCF019770CF80919D00882309F4C8
:10138000A6CF815073CF8091AA009091AB00181620
:1013900019060CF09CCF019771CF8091AC00909111
:1013A000AD00019775CF8091AE009091AF0001978D
:1013B00079CF8091B00081507DCF8091B100815074
:1013C0007FCF80918E00815081CFE7FF88CF309210
:1013D0008C008ACF5FD810929600109293001092E2
:1013E00095008114910409F444CD0AD63CCD809136
:1013F0009500811150C010929B0080919B0081113B
:1014000002C01092900046D8109296008FE0809310
:10141000930083E080939500809196008111E1CF45
:1014200082E08093960080E0E4D880919B00811157
:1014300088C08EE891E0F2D88AE30AD9C091B4005E
:10144000D091B500D7FD02C080E202D9CE0181D98A
:101450008FE2FED8E0919C00F0E0EE0FFF1FE25615
:10146000FF4F8081918175D98FEDF2D881E0C1D88D
:1014700080919B00882309F49DC086E4E9D880917F
:101480008E0090918F00992309F473C0811171C06F
:101490008DE2DED86FC080919C008F5F823019F0A2
:1014A00080939C00AACF10929C00A7CF80919100BE
:1014B00080FF27C080919B00882309F180919C00C8
:1014C00090E0DC01AA0FBB1FA256BF4F2D913C91AB
:1014D0001197880F991FFC01EF58FF4F8081918170
:1014E0002817390724F42F5F3F4F2D933C93B8D72B
:1014F000109296008FE08093930081E08BCFCAD743
:10150000F7CF8091910082FF87CF80919B00882345
:10151000B1F380919C0090E0DC01AA0FBB1FA256A2
:10152000BF4F2D913C911197880F991FFC01E359F2
:10153000FF4F8081918182179307CCF621503109AA
:10154000D4CF60919C0061110AC0809190008823E3
:1015500019F089E891E06FCF84E891E06CCF6130B9
:1015600019F48FE791E067CF70E090E080E0CAD88F
:1015700063CFC2D88BE791E051D8C091CC00D09115
:10158000CD00D7FD02C080E263D8CE01E2D88091C1
:101590008F008823C9F08AE25BD8E0919C00F0E0DC
:1015A000EE0FFF1FEE55FF4F80819181D2D88FED56
:1015B0004FD817CF80919C00811104C088E448D88F
:1015C0008EE267CF83E4FBCF8FE2E6CF80919B0072
:1015D00081110DCF81E080939B000FCF10928D0081
:1015E00010928C00D3D856D7DCE3C1E065E070E000
:1015F00080E090E0B0D680919700815009F4C4CD8E
:10160000809397008091910081FFD8CD80918D00CB
:10161000882309F4CBCD4CE150E060E070E088E92C
:1016200090E046D010928D00B1D834D7DCE3DECF05
:10163000E1EFF0E01382128285E690E091838083EF
:1016400086E084838FEF858387E0868382E08783CB
:1016500083E0808784E0818785E082871386148613
:10166000158616861786E4EBF0E089E19CEF9183FE
:10167000808313821282918F808F138E128E089531
:10168000DC01CB01FC01E199FECF06C0FFBBEEBB44
:10169000E09A31960DB20D9241505040B8F708953E
:1016A000E199FECF9FBB8EBBE09A99278DB3089539
:1016B000DC01A40FB51F4150504040F0CB01840F16
:1016C000951F2E9105D041505040D8F70895262FF0
:1016D000E199FECF9FBB8EBBE09A01970DB2021637
:1016E00031F02DBB0FB6F894E29AE19A0FBE08953F
:1016F000AA1BBB1B51E107C0AA1FBB1FA617B70738
:1017000010F0A61BB70B881F991F5A95A9F7809553
:101710009095BC01CD01089597FB072E16F4009417
:1017200006D077FD08D0E4DF07FC05D03EF49095A5
:1017300081959F4F0895709561957F4F0895A1E21F
:101740001A2EAA1BBB1BFD010DC0AA1FBB1FEE1F3B
:10175000FF1FA217B307E407F50720F0A21BB30B86
:10176000E40BF50B661F771F881F991F1A9469F702
:1017700060957095809590959B01AC01BD01CF015E
:101780000895052E97FB16F400940FD057FD05D051
:10179000D6DF07FC02D046F408C05095409530953E
:1017A00021953F4F4F4F5F4F0895909580957095CD
:1017B00061957F4F8F4F9F4F0895A29FB001B39FB8
:1017C000C001A39F01D0B29F700D811D1124911DF6
:1017D0000895EE0FFF1F0590F491E02D0994F89401
:0217E000FFCF39
:1017E200FF000000000603DD012D032C03320096EA
:1017F200005E012C01536574206B6579732C207097
:0A180200726573733A00203D200068
:00000001FF
