:100000002FC153C152C151C150C14FC14EC14DC189
:100010004CC162C54AC149C148C147C178C345C145
:1000200044C143C142C1CBC1CDC1D5C1DCC1E3C1D3
:10003000EAC101C208C2EFC1F6C10DC214C21BC29F
:1000400036C23AC23EC242C246C252C256C248C27A
:100050004AC258C25AC25CC2FDC802C907C90CC90B
:1000600011C923C928C914C91AC92BC92EC931C934
:100070005AC963C96CC975C982C9A4C9ADC98DC93A
:1000800094C9B4C9B9C9BEC9A7038C036A034303A1
:100090001603E302AD0274023A020102C90194019F
:1000A000630137010F01EB00CC00B1009A0085001D
:1000B0007400650058004C00A7038C036A034303D7
:1000C0001603E302AD0274023A020102C90194016F
:1000D000630137010F01EB00CC00B1009A008500ED
:1000E0007400650058004C003A200046616E2054B0
:1000F0006573740050617573650046616E207469A4
:100100006D6500576F726B0046616E2074696D6596
:100110000057617465722074DF00436F727265630B
:1001200074004169722074DF00436F7272656374FA
:10013000005468726573686F6C640046616E53703A
:1001400065656432005370656564206D61780046B2
:10015000616E0057617465720048797374657265E9
:10016000732E005461726765740048797374657208
:1001700065732E0054656D70005761726D696E670E
:10018000005761746572204D617800436F6F6C0099
:100190005761746572204D696E0048656174004551
:1001A0007869740053657475703A2000332E446F7B
:1001B000776E00322E4F6B00312E55700056616401
:1001C000696D204B756C616B6F7628632900312E49
:1001D00030300046616E636F696C2076002C573AB0
:1001E00000436F6F6C0048656174005761726D0069
:1001F0004F6666200053657474696E67732073617F
:100200007665642E00000000000000000000040578
:1002100007000000000000000000000000000000D7
:100220003800350032000000000037003400310093
:10023000040404040404040402020202020203038C
:10024000030303030202030102040810204080019B
:1002500002040810200102040810204080402F0BE7
:1002600011241FBECFE5D4E0DEBFCDBF10E0A0E675
:10027000B0E0E8E1F8E102C005900D92A638B107C0
:10028000D9F721E0A6E8B0E001C01D92A530B20781
:10029000E1F711E0C0E3D1E003C02197FE01B0DA3D
:1002A000CF32D107D1F762D4B5CAAACECF92DF92AE
:1002B000EF92FF920F931F93CF93DF936C017A011C
:1002C0008B01C0E0D0E0CE15DF0589F0D8016D913B
:1002D0008D01D601ED91FC910190F081E02DC601D8
:1002E0000995892B11F47E0102C02196ECCFC7013C
:1002F000DF91CF911F910F91FF90EF90DF90CF9002
:100300000895CF938091900081110FC0C5E6809130
:100310008D00882351F06AE070E080E090E09BD38C
:10032000C150A9F781E08093900066E970E080E019
:1003300090E0CF9190C3CF93C8EC80918D0088233B
:1003400041F0C15031F064E670E080E090E083D38A
:10035000F4CF64E670E080E090E0CF917CC3CF936F
:10036000DF93EC0197FF05C08DE2EED2D195C195E8
:10037000D109CE016AE070E0E6D9EC01072E000C4D
:10038000880B990BECD28EE2DFD2BE01DD0F880B19
:10039000990BDF91CF91E3C298D384EA91E09ED28A
:1003A000E09188008E2FEE0F990BAA0BBB0B8D30BE
:1003B000910508F065C0FC01ED5EFF4F09948FE9DF
:1003C00091E007C08AE991E089D281E0ADD280E96D
:1003D00091E084D255C08BE891E080D281E0A4D234
:1003E00081E891E0F6CF89E791E078D281E09CD274
:1003F00084E791E0EECF8AE691E070D281E094D27A
:1004000083E691E0E6CF89E591E068D281E08CD285
:1004100083E591E0DECF8FE491E060D281E084D289
:1004200085E491E0D6CF8BE391E058D281E07CD295
:1004300081E391E0CECF89E291E050D281E074D2A5
:1004400082E291E0C6CF8AE191E048D281E06CD2AD
:1004500081E191E0BECF88E091E040D281E064D2BA
:1004600083E091E0B6CF8AEF90E038D281E05CD2B1
:1004700084EF90E0AECF8BEE90E030D281E054D2AA
:1004800080918900882309F44AC088EE90E026D242
:10049000E09188008E2FEE0F990BAA0BBB0BFC018D
:1004A0003197EC30F105D8F5E05EFF4F099480916B
:1004B0009E0090919F0004C08091A0009091A100A7
:1004C0004ECF8091AE009091AF00FACF8091A20004
:1004D0009091A300F5CF8091A4009091A500F0CF5A
:1004E0006091990017C08091A6009091A700E8CF75
:1004F0008091A8009091A900E3CF8091AA009091EB
:10050000AB00DECF6091AC0005C06091AD0002C0D1
:1005100060918A0070E080E090E04AE0A0C1089518
:10052000CF93DF93EC0160E08E815FD261E08E813A
:100530005CD260E08E8159D284EC90E00197F1F7B3
:10054000DF91CF910895CF92DF92EF92FF920F93B8
:100550001F93CF93DF937C016C0187E0C80ED11C01
:10056000C0E0D0E0062F10E0B8010C2E02C0759557
:1005700067950A94E2F76170F60181916F0135D2B7
:100580002196C430D10581F7C701DF91CF911F912A
:100590000F91FF90EF90DF90CF90C2CF9091990094
:1005A000981708F4892F90918A009817F1F080939A
:1005B0008A00882319F09091AC0002C09091AD00A0
:1005C00090938E0060E0813029F48AE00ED261E0E1
:1005D00089E00AC0823021F489E007D261E003C0DB
:1005E00089E003D260E08AE000C208950FD90F933A
:1005F0001F93CF93DF938C01EB0167D281E790E0EB
:100600001DD181E091D1809160008B3F30F464E690
:1006100070E080E090E01FD2F6CFC8015FD18091FA
:1006200060008B3F30F064E670E080E090E013D231
:10063000F6CF68EC70E080E090E00DD26091600051
:10064000CE015CD882E890E0F9D06091600070E063
:1006500080E090E04AE003D168E873E180E090E058
:10066000DF91CF911F910F91F6C1CF92DF92EF9260
:10067000FF920F931F93CF93DF93EC01F62E642F1D
:100680008C81B3D18D818F3F11F060E0AED18F8529
:100690000F2D10E084FF23C06E0187E0C80ED11C2F
:1006A000E12CF12CB8010E2C02C0759567950A94C7
:1006B000E2F76170F60181916F0197D1FFEFEF1AB8
:1006C000FF0A88E0E816F10469F7CE01DF91CF91C7
:1006D0001F910F91FF90EF90DF90CF9021CFB80145
:1006E00084E0759567958A95E1F7CE012CDF6F2D33
:1006F000CE01DF91CF911F910F91FF90EF90DF908E
:10070000CF9021CF41E0B1DF81E090E008951F92CA
:100710000F920FB60F9211242F933F934F938F9305
:100720009F93EF93FF9324B185B190E0982F882792
:10073000820F911DE0918700E23088F421E02E0FB6
:1007400020938700F0E0EE0FFF1FE052FF4F9183F0
:100750008083223011F081E43DC082E43BC0969555
:10076000879596958795382F809360002091940007
:10077000281720F4482F421B242F01C0281B2031AA
:10078000C0F020919500231720F4482F421B242FFE
:1007900001C0281B203178F020919600231720F407
:1007A000821B803150F003C0281B203130F080E0E4
:1007B00005C081E003C082E001C084E09091860022
:1007C000981303C080938D0002C08093860010921E
:1007D000870080E487B9369AFF91EF919F918F91BE
:1007E0004F913F912F910F900FBE0F901F90189532
:1007F0003FB7F8948091010190910201A09103010B
:10080000B091040122B708B600FE05C02F3F19F0D1
:100810000196A11DB11D3FBFBA2FA92F982F882780
:10082000820F911DA11DB11DBC01CD0143E0660FDA
:10083000771F881F991F4A95D1F70895009761F097
:10084000FC0101900020E9F73197AF01481B590BDB
:10085000BC0184EE90E02ACD80E090E008958F9274
:100860009F92AF92BF920F931F93CF93DF93CDB719
:10087000DEB7A1970FB6F894DEBF0FBECDBF19A2A9
:10088000423008F44AE08E010F5D1F4F842E912CF8
:10089000A12CB12CA501940169D7E62FB901CA0199
:1008A00001501109EA3014F4E05D01C0E95CD8019F
:1008B000EC93232B242B252B69F7C801BFDFA196CE
:1008C0000FB6F894DEBF0FBECDBFDF91CF911F9161
:1008D0000F91BF90AF909F908F9008950F931F93AB
:1008E000CF93DF938C01C0E0D0E0F801EC0FFD1F47
:1008F0006491662371F0E091E400F091E5000190CD
:10090000F081E02D84EE90E00995892B11F021967D
:10091000ECCFCE01DF91CF911F910F91089540E070
:10092000682F84EE90E0A1CE843008F083E09091AF
:10093000F700891710F08FEF890FE82FF0E0EC51E6
:10094000FF4F84898068EBCFE091E400F091E500EF
:100950000190F081E02D682F84EE90E00994CF9211
:10096000DF92EF92FF92CF93DF9397FF17C06B0157
:100970007C018DE2E9DFEC0166277727CB016C195A
:100980007D098E099F094AE06ADF8C0F9D1FDF9168
:10099000CF91FF90EF90DF90CF9008954AE0DF91E4
:1009A000CF91FF90EF90DF90CF9059CF90E0FC0176
:1009B000E95BFD4F2491FC01E05DFD4F84918823AC
:1009C00099F090E0880F991FFC01EA5DFD4FA59119
:1009D000B491FC01E45EFD4F859194918FB7F8943A
:1009E000EC91E22BEC938FBF089590E0FC01EB5F5C
:1009F000FD4F3491FC01E95BFD4F2491FC01E05D6A
:100A0000FD4FE491EE2331F1332381F0353039F09D
:100A1000373049F0343051F48FB58F7702C08FB53D
:100A20008F7D8FBD03C085B58F7D85BDF0E0EE0F56
:100A3000FF1FE45EFD4FA591B4918FB7F89461114B
:100A400005C09C91E22FE095E92302C0EC91E22BD6
:100A5000EC938FBF08958F929F92AF92BF92CF92E7
:100A6000DF92EF92FF926B017C01C2DE4B015C01D1
:100A7000C114D104E104F104F9F08895A895B8DE19
:100A8000DC01CB0188199909AA09BB09883E93406A
:100A9000A105B10568F321E0C21AD108E108F10807
:100AA00088EE880E83E0981EA11CB11CC114D104ED
:100AB000E104F10421F7DCCFFF90EF90DF90CF90BD
:100AC000BF90AF909F908F90089581E028DF62E003
:100AD00070E080E090E0BFCF1F920F920FB60F92B0
:100AE00011242F933F938F939F93AF93BF93809144
:100AF000FD009091FE00A091FF00B09100013091A7
:100B0000FC0026E0230F2D3720F40296A11DB11D15
:100B100005C029E8230F0396A11DB11D2093FC00F9
:100B20008093FD009093FE00A093FF00B09300011E
:100B30008091010190910201A0910301B091040103
:100B40000196A11DB11D8093010190930201A09314
:100B50000301B0930401BF91AF919F918F913F9199
:100B60002F910F900FBE0F901F901895789483B718
:100B7000826083BF83B7816083BF89B7816089BF8B
:100B80001EBC8EB582608EBD8EB581608EBD8FB568
:100B900081608FBD85B5846085BD85B5806485BD68
:100BA000329A319A3098379A1AB885B7806885BFDB
:100BB0009FE088E10FB6F894A89581BD0FBE91BD66
:100BC000AA9A1092870090E497B98FEC86B9809129
:100BD000F30088608093F30082E08093F700109226
:100BE000F8009093F90080E18093FA0080E580930B
:100BF000FB008091E800DADE8091E9008F3F09F088
:100C0000D5DE8091EA00D2DEC0E0D0E08091F30032
:100C100084FD03C084E090E002C088E090E0C81743
:100C2000D9073CF4FE01EC51FF4F8781BFDE2196CE
:100C3000EDCF62E370E080E090E00DDF60E0809156
:100C4000E800D3DE60E08091EA00CFDE8091E90029
:100C50008F3F11F060E0C9DE8091F30084FD1FC07A
:100C600063E084EE90E06FDC65E070E080E090E0AF
:100C7000F2DE63E084EE90E066DC65E070E080E048
:100C800090E0E9DE63E084EE90E05DDC88E291E0F4
:100C90000197F1F762E084EE90E055DC12C08062CB
:100CA0003EDE84E293E20197F1F78091F3008062E7
:100CB00036DE88E291E00197F1F78091F3008062DF
:100CC0002EDE8091F30080622ADE84E08093F400BF
:100CD0008CE025DEFADEC2E0C093F50086E01FDE80
:100CE00083ED91E0FBDD8EEC91E0F8DD81E01CDE30
:100CF0008DEB91E0F3DD84E090E0E9D48F3F09F0E3
:100D000046C08CE1E4E9F0E0DF011D928A95E9F745
:100D100080EF90E090939B0080939A0088EC90E0A5
:100D200090939D0080939C0082E291E090939F00BD
:100D300080939E008EEB90E09093A1008093A000A2
:100D40008AEA90E09093AF008093AE008AE090E052
:100D50009093A3008093A2008FE090E09093A50071
:100D60008093A400C093990089E190E09093A7003C
:100D70008093A6008EE18093AC008CE38093AD005D
:100D80004CE150E060E070E0CF01A9D404C0809154
:100D900060008A3078F460E070E088EB91E027DC56
:100DA00061E070E083EB91E022DC62E070E08CEACD
:100DB00091E01DDC1092860010928D004CE150E015
:100DC00060E070E084E990E072D485E08093920066
:100DD00061E070E080E090E03EDE8091E000909184
:100DE000E10028EB30E03093B9002093B80027E110
:100DF0002093BA00EDEBF0E081939193B0E0E73CF3
:100E0000FB07D1F79C01220F331F220F331F280F3E
:100E1000391F3093BC002093BB0080959095909330
:100E2000B3008093B2001092C7008091E2009091CD
:100E3000E30028E830E03093D1002093D00027E190
:100E40002093D200E5EDF0E08193919320E0EF3D17
:100E5000F207D1F79C01220F331F220F331F280FF7
:100E6000391F3093D4002093D300809590959093B0
:100E7000CB008093CA001092DF00ACE03A2EB5E0C0
:100E80006B2E712CCCE04C2EE2E35E2E65E070E020
:100E900080E090E0E0DD60EEC62E60E0D62EC0EB94
:100EA000D0E007EC10E078EA872E70E0972EE12C76
:100EB000F12CF894D6012D913D916D017894F801B3
:100EC000B0808B859C85820F931F3E9CF0013F9CD8
:100ED000F00D1124EB0DF11DEE0FFF1FE055FF4F3C
:100EE00045855685841B950B9C878B873687258780
:100EF000B30115D481E08B0D853019F0D8018C93A6
:100F000002C0F80110828A819B818617970709F435
:100F10006BC07B836A83F8013D97B08080E0282F07
:100F200030E08B2D90E0AC01421B530BA885B985B6
:100F30004230510584F0820F931F95958795FC01EF
:100F4000EE0FFF1FEA0FFB1F4591549146175707FD
:100F500030F7B82EE6CFF901EE0FFF1FEA0FFB1FA7
:100F6000459154914617570740F4529EC001539E35
:100F7000900D11248A5F910912C0FC01EE0FFF1F32
:100F8000EA0FFB1FA591B4916A177B0758F4589E8E
:100F90009001599E300D1124C901865991099983F8
:100FA000888322C04A1B5B0B589E5001599EB00C8F
:100FB0001124F8ECAF1AB1084115510599F09B01C5
:100FC0002A1B3B0BA2E3B0E00FD49A01369527957C
:100FD000620F731F811D911D9A0140E050E0E8D31C
:100FE000A21AB30AB982A882D4018D919D914D01B4
:100FF00028813981820F931F998388836896085EC0
:101000001F4FEA94EF2821F0EE24E394F12C51CF06
:1010100080919300815019F080939300AFC088ECC9
:101020008093930080919200882319F081508093DF
:10103000920080919100882331F08150809391003B
:10104000882309F4D0C280918F00882331F0815029
:1010500080938F00882309F4C9C280918E00882371
:1010600019F0815080938E0080919700811109C002
:1010700080918A00882311F080E090DA10928E002F
:101080007DC0E091C800F091C90050919800252FD3
:1010900030E0D901AA0FBB1FA256BF4F8D919C9182
:1010A000BF01681B790BCB01513019F491958195E3
:1010B00091096091A4007091A500861797071CF014
:1010C00010928B0006C0181619061CF081E0809360
:1010D0008B008091B0009091B10040918B0044232F
:1010E00049F0511107C0A091AE00B091AF00A81710
:1010F000B90724F4A0918C00AA2379F0680F791F16
:10110000A1E06E177F070CF0A0E0A0938C004423B1
:1011100011F041E04A2740938B0040918E0041112D
:101120002DC040918B00411112C0220F331FF901D5
:10113000E656FF4F20813181821B930B513019F409
:1011400091958195910997FD04C010928C0080E0E3
:1011500014C09195819591092091A2003091A3002E
:10116000281739075CF42091A6003091A7002817B2
:10117000390714F482E001C081E010DA80918D001B
:1011800081FF58C1CEE180918D00882341F0C1508C
:1011900041F064E670E080E090E05DDCF4CFC111E6
:1011A00034C21092890010928800F6D8C4D81CE38B
:1011B000D8ECC1E065E070E080E090E04CDC80912C
:1011C0009300815081F4D0939300115009F42AC107
:1011D00080919100882349F0815080939100882369
:1011E00009F43AC202C08093930080918D0081FF80
:1011F00018C080918900882351F04CE150E060E0F4
:1012000070E084E990E06BD21092890007C0809171
:101210008800882309F406C1C0938900BDD88BD803
:1012200067C080918D0080FF65C080918900E0914A
:101230008800882309F451C08E2FEE0F990BAA0B5A
:10124000BB0BFC013197EC30F10508F0DFC0E45D29
:10125000FF4F099480919E0090919F00019668C075
:101260008091A0009091A10001966CC08091AE0089
:101270009091AF00019670C08091A2009091A30060
:10128000019678C08091A4009091A500019680C03D
:1012900080919900823008F0B9C08F5F83C080913F
:1012A000A6009091A700019688C08091A800909117
:1012B000A90001968CC08091AA009091AB00019684
:1012C00090C08091AC008F5F94C08091AD008F5F23
:1012D00096C080918A008F5F98C081E08E0F8D301C
:1012E0000CF49AC01092880026D856D8C09391006A
:1012F0001CE360CF80918D0082FF5CCF80918900DC
:10130000E0918800882309F483C08E2FEE0F990B9B
:10131000AA0BBB0BFC013197EC30F10508F076C04D
:10132000E85CFF4F099480919E0090919F00019787
:1013300090939F0080939E0069C08091A00090913F
:10134000A10001979093A1008093A0005FC08091BD
:10135000AE009091AF0001979093AF008093AE00E4
:1013600055C08091A2009091A300181619060CF0A8
:101370004DC001979093A3008093A20047C0809135
:10138000A4009091A500181619060CF03FC0019713
:101390009093A5008093A40039C080919900882380
:1013A000A9F181508093990031C08091A60090915D
:1013B000A7001816190654F501979093A70080937B
:1013C000A60024C08091A8009091A9000197909355
:1013D000A9008093A8001AC08091AA009091AB0048
:1013E00001979093AB008093AA0010C08091AC004D
:1013F00081508093AC000AC08091AD0081508093F1
:10140000AD0004C080918A008150C8D87AD76DCFD2
:101410008FEF8E0F87FD03C08093880065CF4092C9
:10142000880062CF88D71092920010928F0010929D
:101430009100D2C080918D0080FF1FC080919700E5
:10144000882319F18091980090E0DC01AA0FBB1F5E
:10145000A656BF4F2D913C911197880F991FFC0103
:10146000E359FF4F808191812817390724F42F5FBA
:101470003F4F2D933C9345D709C080918D0082FF4B
:1014800026C08091970081110AC055D71092920012
:101490008FE080938F0081E08093910018C080914D
:1014A000980090E0DC01AA0FBB1FA656BF4F2D91FC
:1014B0003C911197880F991FFC01E759FF4F8081DC
:1014C000918182179307BCF621503109D2CF8091C8
:1014D0009200811181C082E08093920080E024DA42
:1014E00080919700811103C080EF91E012C060915C
:1014F000980061110AC080918C00811103C086EEB2
:1015000091E007C08BEE91E004C0613021F481EEE0
:1015100091E0E4D904C070E080E090E020DA8AE352
:1015200013DAC091B000D091B100D7FD02C080E2C3
:101530000BDACE0114D78FE207DAE0919800F0E0E1
:10154000EE0FFF1FE656FF4F8081918108D78FED88
:10155000FBD981E0E9D980919700882391F086E456
:10156000F3D980918B0060918A00882321F061116A
:1015700002C08DE20FC070E080E090E04AE06FD9D9
:101580000AC080919800882311F083E401C088E4A8
:10159000DBD98EE2D9D98DED91E0A0D9C091C800F8
:1015A000D091C900D7FD02C080E2CED9CE01D7D6F6
:1015B00080918B00811102C08FE201C08AE2C4D900
:1015C000E0919800F0E0EE0FFF1FE256FF4F8081A0
:1015D0009181C5D68FEDB8D980E090E0892B09F4D0
:1015E00055CC0ED551CC109290002DCD6EDA4CE139
:1015F00050E060E070E084E990E071D085EF91E028
:101600006DD982E08093920028CD80919700882345
:1016100091F080919100811103C0109297000EC04B
:10162000809198008F5F823019F08093980006C0F7
:101630001092980003C081E08093970080919700FA
:10164000811102C010928C0076D6109292008FE029
:1016500080938F0083E020CF10929000C6CDE4EEFF
:10166000F0E01382128285E690E09183808386E029
:1016700084838FEF858387E0868382E0878383E09E
:10168000808784E0818785E08287138614861586AB
:1016900016861786E0EBF0E089E19CEF918380836A
:1016A00013821282918F808F138E128E0895DC0127
:1016B000CB01FC01E199FECF06C0FFBBEEBBE09A77
:1016C00031960DB20D9241505040B8F70895E1990E
:1016D000FECF9FBB8EBBE09A99278DB30895DC01A6
:1016E000A40FB51F4150504040F0CB01840F951F0F
:1016F0002E9105D041505040D8F70895262FE199FA
:10170000FECF9FBB8EBBE09A01970DB2021631F05F
:101710002DBB0FB6F894E29AE19A0FBE0895AA1B6A
:10172000BB1B51E107C0AA1FBB1FA617B70710F0CC
:10173000A61BB70B881F991F5A95A9F780959095FE
:10174000BC01CD01089597FB072E16F4009406D036
:1017500077FD08D0E4DF07FC05D03EF49095819535
:101760009F4F0895709561957F4F0895A1E21A2EBD
:10177000AA1BBB1BFD010DC0AA1FBB1FEE1FFF1F35
:10178000A217B307E407F50720F0A21BB30BE40B85
:10179000F50B661F771F881F991F1A9469F76095CC
:1017A0007095809590959B01AC01BD01CF01089586
:1017B000052E97FB16F400940FD057FD05D0D6DF09
:1017C00007FC02D046F408C050954095309521950D
:1017D0003F4F4F4F5F4F089590958095709561955D
:1017E0007F4F8F4F9F4F0895A29FB001B39FC001BD
:1017F000A39F01D0B29F700D811D1124911D0895EA
:10180000EE0FFF1F0590F491E02D099481E090E028
:08181000F89400C0F894FFCF2A
:10181800FF0000000082035601320096005E012C92
:1018280001536574206B6579732C2070726573732E
:061838003A00203D2000F3
:00000001FF
