:1000000007C12BC12AC129C128C127C126C125C1C9
:1000100024C1E9C422C121C120C11FC12EC51DC1F7
:100020001CC11BC11AC1A7038C036A034303160337
:10003000E302AD0274023A020102C90194016301B4
:1000400037010F01EB00CC00B1009A00850074006D
:10005000650058004C00A7038C036A034303160392
:10006000E302AD0274023A020102C9019401630184
:1000700037010F01EB00CC00B1009A00850074003D
:10008000650058004C003A200046616E20546573AC
:100090007400536563004C4344206261636B6C6978
:1000A00074650050617573650046616E2074696DFA
:1000B0006500576F726B0046616E2074696D650054
:1000C00057617465722074DF00436F7272656374E8
:1000D000004169722074DF00436F727265637400BF
:1000E0005468726573686F6C640046616E53706526
:1000F000656432005370656564206D617800466107
:100100006E00576174657200487973746572657327
:100110002E00546172676574004879737465726566
:10012000732E0054656D70005761726D696E6700C3
:100130005761746572204D617800436F6F6C005792
:1001400061746572204D696E004865617400457880
:1001500069740053657475703A2000332E446F77CC
:100160006E00322E4F6B00312E557000566164695F
:100170006D204B756C616B6F7628632900312E30D2
:10018000310046616E636F696C2076002C573A002F
:10019000436F6F6C0048656174005761726D004F6A
:1001A0006666200053657474696E677320736176A8
:1001B00065642E0000000000000000000004050738
:1001C00000000000000000000000000000000038F7
:1001D0000035003200000000003700340031000418
:1001E00004040404040404020202020202030303DE
:1001F00003030302020301020408102040800102ED
:100200000408102001020408102040804000630B05
:1002100011241FBECFE5D4E0DEBFCDBF10E0A0E6C5
:10022000B0E0E8E7F8E102C005900D92AA38B10706
:10023000D9F721E0AAE8B0E001C01D92AB30B207C7
:10024000E1F711E0C8E0D1E003C02197FE010CDB2B
:10025000C730D107D1F781D40DCBD2CE90E0FC01CD
:10026000EA50FE4F249181529E4FFC0184918823D5
:1002700099F090E0880F991FFC01EB52FE4FA59179
:10028000B491FC01E553FE4F859194918FB7F8949A
:10029000EC91E22BEC938FBF089590E0FC01EC54BD
:1002A000FE4F3491FC01EA50FE4F2491FC01E152D3
:1002B000FE4FE491EE23E1F0332349F03530C9F0ED
:1002C0003730D1F0343019F48FB58F778FBDF0E02F
:1002D000EE0FFF1FE553FE4FA591B4918FB7F89431
:1002E00061110EC09C91E22FE095E923EC938FBF42
:1002F00008958FB58F7DEACF85B58F7D85BDE7CF1A
:10030000EC91E22BF3CF000000008330910528F040
:10031000880F991F05970197F1F708953FB7F89453
:100320008091EF009091F000A091F100B091F20067
:1003300022B708B600FE05C02F3F19F00196A11D97
:10034000B11D3FBFBA2FA92F982F8827BC01CD011F
:10035000620F711D811D911D43E0660F771F881F7D
:10036000991F4A95D1F708958F929F92AF92BF92AD
:10037000CF92DF92EF92FF924B015C01CFDF6B01D6
:100380007C018895A895CADF6C197D098E099F09A3
:10039000683E734081059105A0F321E0821A91081F
:1003A000A108B10888EEC80E83E0D81EE11CF11C3C
:1003B00081149104A104B10431F7FF90EF90DF9014
:1003C000CF90BF90AF909F908F900895AF92BF92C3
:1003D000CF92DF92EF92FF920F931F93CF93DF9311
:1003E0006C017B018B01040F151FEB015E01AE1840
:1003F000BF08C017D10759F06991D601ED91FC9162
:100400000190F081E02DC6010995892B79F7C5018E
:10041000DF91CF911F910F91FF90EF90DF90CF90E0
:10042000BF90AF90089590919E00891708F4982F7F
:1004300080918E008917E1F090938E008091B10039
:10044000911102C08091B2008093920060E09130DF
:1004500029F48AE022DF61E089E01FCF89E0923051
:1004600021F41BDF61E08AE0F8CF17DF60E0FBCF0B
:100470000895CF938091950081110FC0C5E68091BA
:100480009100882351F06AE070E080E090E06CDF3A
:10049000C150A9F781E08093950066E970E080E0A3
:1004A00090E0CF9161CFCF93C8EC809191008823E9
:1004B00041F0C15031F064E670E080E090E054DF3C
:1004C000F4CF64E670E080E090E0CF914DCFCF9321
:1004D000DF93EC0160E08E81E0DE81E090E013DFED
:1004E00061E08E81DADE81E090E00DDF60E08E81F8
:1004F000DF91CF91D2CECF92DF92EF92FF920F9306
:100500001F93CF93DF936C017C0187E0E80EF11C11
:10051000D0E0C0E0062F10E0B8010C2E02C07595A7
:1005200067950A94E2F76170F70181917F01B5DE6A
:100530002196C430D10581F7C601DF91CF911F917B
:100540000F91FF90EF90DF90CF90C1CFCF92DF92CD
:10055000EF92FF920F931F93CF93DF93EC01F62E50
:10056000642F8C819ADE8D818F3F11F060E095DEE3
:100570000F2D10E08F8584FF23C06E0187E0C80E29
:10058000D11CF12CE12CB8010E2C02C07595679599
:100590000A94E2F76170F60181916F017EDEFFEF50
:1005A000EF1AFF0A88E0E816F10469F7CE01DF913F
:1005B000CF911F910F91FF90EF90DF90CF9087CF59
:1005C000B80184E0759567958A95E1F7CE0193DFD0
:1005D0006F2DCE01DF91CF911F910F91FF90EF9082
:1005E000DF90CF9088CF40E0682F83EF90E0AEDFC0
:1005F00082E390E088CE81E0F6DF62E070E080E0A8
:1006000090E0B2CE90910601891710F08FEF890F1C
:10061000E82FF0E0ED50FF4F84898068E4CF41E09F
:1006200095DF82E390E06FDE81E090E008950F9324
:100630001F93CF93DF938C01D0E0C0E0F801EC0F63
:10064000FD1F6491662339F083EF90E0E8DF892B8A
:1006500011F02196F3CFCE01DF91CF911F910F9131
:100660000895682F83EF90E0DACF089590E080E05E
:1006700008958F929F92AF92BF920F931F93CF9343
:10068000DF93CDB7DEB7A1970FB6F894DEBF0FBEEC
:10069000CDBF19A2423008F44AE08E010F5D1F4F12
:1006A000842E912CB12CA12CA501940193D8E62F76
:1006B000B901CA01EA303CF5E05DD801EE938D0145
:1006C000232B242B252B81F790E080E0109761F0FD
:1006D000FD0101900020E9F73197AF014A1B5B0B48
:1006E000BD0183EF90E072DEA1960FB6F894DEBFF5
:1006F0000FBECDBFDF91CF911F910F91BF90AF90F3
:100700009F908F900895E95CD8CF682F70E090E0BB
:1007100080E04AE0AECFCF92DF92EF92FF92CF938C
:10072000DF9397FF17C06B017C018DE29ADFEC012C
:1007300066277727CB016C197D098E099F094AE04E
:1007400098DF8C0F9D1FDF91CF91FF90EF90DF908E
:10075000CF9008954AE0DF91CF91FF90EF90DF9026
:10076000CF9087CFCF93DF93EC0197FF05C08DE249
:1007700078DFD195C195D109CE016AE070E017D834
:10078000EC01072E000C880B990BC5DF8EE269DFA8
:10079000BE01DD0F880B990BDF91CF91BCCFCF93BA
:1007A0002ADF83E591E043DFC0918C00CE30C0F4B6
:1007B000EC2F0C2E000CFF0BE152FC4F09940DC0E6
:1007C0002FC036C03DC044C04BC062C069C050C0DD
:1007D00057C06EC075C07CC083C08EE491E027DF37
:1007E00080918D00882309F4BAC086E890E01FDF6D
:1007F000EFEFEC0FED3008F0B2C00E2E000CFF0B47
:10080000ED5FFB4F099472C077C07BC07FC083C08F
:1008100090C094C085C088C096C098C09AC09CC043
:1008200089E491E004DF81E0EDDE8FE391E0D7CF52
:100830008AE391E0FCDE81E0E5DE80E391E0CFCF6A
:1008400088E291E0F4DE81E0DDDE83E291E0C7CF73
:1008500089E191E0ECDE81E0D5DE82E191E0BFCF7D
:1008600088E091E0E4DE81E0CDDE82E091E0B7CF88
:100870008EEF90E0DCDE81E0C5DE84EF90E0AFCF6C
:100880008AEE90E0D4DE81E0BDDE80EE90E0A7CF7E
:1008900088ED90E0CCDE81E0B5DE81ED90E09FCF89
:1008A00089EC90E0C4DE81E0ADDE80EC90E097CF93
:1008B00087EB90E0BCDE81E0A5DE82EB90E08FCF9D
:1008C00089EA90E0B4DE81E09DDE83EA90E087CFA4
:1008D00086E990E0ACDE81E095DE82E990E07FCFB2
:1008E00089E890E0A4DE81E08DDE7ACF8091A300DC
:1008F0009091A400CF9136CF8091A5009091A60051
:10090000F9CF8091B3009091B400F4CF8091A7000B
:100910009091A800EFCF8091A9009091AA00EACF12
:1009200080919E00CF91F1CE8091AB009091AC0070
:10093000E1CF8091AD009091AE00DCCF8091AF000F
:100940009091B000D7CF8091B100ECCF8091B200F0
:10095000E9CF8091B500E6CF80918E00E3CFCF91B3
:1009600008950F931F93CF93DF938C01EB0143DE28
:1009700040E150E065E770E083EF90E027DD81E043
:1009800041DE809160008B3F30F464E670E080E0EF
:1009900090E0EADCF6CFC8014ADE809160008B3F30
:1009A00030F064E670E080E090E0DEDCF6CF68ECEA
:1009B00070E080E090E0D8DC60916000CE01D2D69B
:1009C00043E050E066E870E083EF90E0FFDC809168
:1009D00060009BDE68E873E180E090E0DF91CF91FA
:1009E0001F910F91C1CC1F920F920FB60F9211243D
:1009F0002F933F938F939F93AF93BF938091EB007F
:100A00009091EC00A091ED00B091EE003091EA00E1
:100A100026E0230F2D3768F129E8230F0396A11D47
:100A2000B11D2093EA008093EB009093EC00A0931B
:100A3000ED00B093EE008091EF009091F000A09156
:100A4000F100B091F2000196A11DB11D8093EF005D
:100A50009093F000A093F100B093F200BF91AF919A
:100A60009F918F913F912F910F900FBE0F901F90EC
:100A700018950296A11DB11DD4CF1F920F920FB6EB
:100A80000F9211242F933F934F938F939F93EF9344
:100A9000FF9384B125B130E0322F2227820F932FAC
:100AA000911DE0918B00E230E8F421E02E0F2093BD
:100AB0008B00F0E0EE0FFF1FEA51FF4F9183808320
:100AC00081E4223009F482E487B9369AFF91EF91EC
:100AD0009F918F914F913F912F910F900FBE0F904B
:100AE0001F9018959695879596958795382F8093A2
:100AF000600020919900281700F5482F421B242FF1
:100B0000203120F120919A002317C8F4482F421B6E
:100B1000242F2031E8F020919B00231790F4821BB2
:100B2000803190F080E090918A00981313C08093F8
:100B3000910010928B0080E4C7CF281BE1CF281BC7
:100B4000E8CF281B203170F784E0EDCF81E0EBCFB8
:100B500082E0E9CF80938A00ECCF789483B78360FA
:100B600083BF89B7816089BFC2E0CEBD8EB5816089
:100B70008EBD8FB581608FBD85B5846085BD85B51F
:100B8000806485BD86E886B91AB885B7806885BF58
:100B900088E19FE00FB6F894A89581BD0FBE91BD86
:100BA000AA9A89E05BDB8AE059DB8BE057DB61E0E6
:100BB0008BE073DB10928B0090E497B98FEC86B9D1
:100BC00080910201886080930201C0930601109217
:100BD00007019093080180E18093090180E58093EB
:100BE0000A018091F7003ADB8091F8008F3F09F00D
:100BF00035DB8091F90032DBC3EFD0E09E01235F4B
:100C000030408091020184FF09C088E090E0219685
:100C10002817390734F48E8121DBF0CF84E090E08F
:100C2000F6CF62E370E080E090E09EDB60E08091D0
:100C3000F70033DB60E08091F9002FDB8091F80052
:100C40008F3F11F060E029DB8091020184FD94C0A8
:100C500063E083EF90E04FDC65E070E080E090E0DF
:100C600083DB63E083EF90E046DC65E070E080E0EA
:100C700090E07ADB63E083EF90E03DDC86E990E092
:100C800042DB62E083EF90E036DC8091020180621B
:100C9000AADC84E0809303018CE0A5DCACDCC2E03C
:100CA000C093040186E09FDC82E891E0C0DC8DE720
:100CB00091E0BDDC81E0A6DC8CE691E0B8DC84E06C
:100CC00090E039D58F3F09F068C0E9E9F0E089E1AB
:100CD000DF011D928A95E9F780EF90E09093A000E4
:100CE00080939F0088EC90E09093A2008093A100F5
:100CF00082E291E09093A4008093A3008EEB90E0B9
:100D00009093A6008093A5008AEA90E09093B400A7
:100D10008093B3008AE090E09093A8008093A700AE
:100D20008FE090E09093AA008093A900C0939E006A
:100D300089E190E09093AC008093AB008EE18093CA
:100D4000B1009CE39093B2008093B5004DE150E078
:100D500060E070E0CF01F7D460E070E087E691E0FA
:100D600000DE61E070E082E691E0FBDD62E070E0D1
:100D70008BE591E0F6DD15C0806235DC84E991E118
:100D8000C2DA8091020180622EDC86E990E0BBDA53
:100D900080910201806227DC78CF809160008A30E8
:100DA000D8F210928A00109291004DE150E060E07C
:100DB00070E089E990E0AFD48091B5008093940011
:100DC000C5E0C093970061E070E080E090E0CCDA8D
:100DD0008091E6009091E70026E530E03093BF0077
:100DE0002093BE0027E12093C0009093C40080931D
:100DF000C3009093C6008093C5009093C800809371
:100E0000C7009093CA008093C9009093CC00809350
:100E1000CB00C89FA001C99F500D11245093C20060
:100E20004093C100809590959093B9008093B8004D
:100E30001092CD008091E8009091E90046E250E0E8
:100E40005093D7004093D6002093D8009093DC00B5
:100E50008093DB009093DE008093DD009093E000B0
:100E60008093DF009093E2008093E1009093E40090
:100E70008093E300C89F9001C99F300D11243093E7
:100E8000DA002093D900809590959093D1008093BB
:100E9000D0001092E500ACE02A2EB5E06B2E712C4C
:100EA000C2E34C2ED0E08D2ED0E09D2EE8EC5E2EDD
:100EB000FDE03F2E65E070E080E090E055DA66EE00
:100EC000A62E60E0B62EC6EBD0E07DEAC72E70E01D
:100ED000D72EF12CE12CF894F501219131915F018D
:100EE00078941F898B859C85820F931F2E9CF0011F
:100EF0002F9CF00D1124E10FF11DEE0FFF1FEA549E
:100F0000FF4F45855685841B950B9C878B873687BD
:100F10002587B30138D41F5F153059F11F8B8A81A3
:100F20009B816817790709F43AC07B836A830A8535
:100F300010E0412F50E0802F90E09C01241B350BE6
:100F4000A885B98522303105C4F0840F951F959589
:100F50008795FC01EE0FFF1FEA0FFB1F25913491CF
:100F60002617370740F0182FE4CFEE24E394F12C36
:100F7000B2CF1F8AD4CF082FDECFFA01EE0FFF1FAA
:100F8000EA0FFB1F259134912617370708F040C060
:100F9000149DC00111248A5F910999838883D60129
:100FA0002D913D916D0188819981820F931F9983C5
:100FB00088836896EA94EF28C1F680919800815062
:100FC00009F453C08093980080919100882369F0C0
:100FD00080919400811109C08091B500882329F087
:100FE0008093940061E08BE058D98091910081FF5B
:100FF000A8C2CEE180919100882309F432C3C15088
:1010000009F437C364E670E080E090E0ADD9F2CF38
:10101000FC01EE0FFF1FEA0FFB1F45915491049D49
:10102000800111246417750728F4065911091983E2
:101030000883B5CFF901E41BF50B085C1109309763
:10104000B1F39B01241B350BA2E3B0E001D49F0157
:1010500036952795620F731F811D911D9F0150E0EA
:1010600040E0DAD3021B130BE2CF5092980080913C
:101070009700882319F08150809397008091960003
:10108000882339F0815080939600811102C010921C
:1010900095008091940081508E3F38F480939400A5
:1010A000811103C060E08BE0F8D880919300882321
:1010B00099F081508093930081110EC09CDA4DE12C
:1010C00050E060E070E089E990E03DD384EA91E08F
:1010D000AEDA82E08093970080919200882319F025
:1010E00081508093920080919C00811109C0809171
:1010F0008E00882311F080E096D91092920064CF80
:10110000E091CE00F091CF0050919D00252F30E06E
:10111000D901AA0FBB1FAD55BF4F8D919C91BF0147
:10112000681B790BCB01513019F491958195910988
:101130006091A9007091AA0086179707A4F11092F8
:101140008F008091B6009091B70040918F004423AA
:1011500049F0511107C0A091B300B091B400A81795
:10116000B90724F4A0919000AA2391F0680F791F89
:10117000A1E06E177F070CF0A0E0A093900044233D
:1011800029F041E06E177F070CF440E040938F0098
:1011900040919200411118CF40918F00442351F0AB
:1011A00080E041D911CF181619065CF281E08093D6
:1011B0008F00C7CF220F331FF901E156FF4F208167
:1011C0003181821B930B513019F4919581959109CE
:1011D00097FD03C010929000E3CF919581959109FE
:1011E0002091A7003091A800281739070CF0ECCE09
:1011F0002091AB003091AC002817390714F482E03D
:10120000D0CF81E0CECF50929800D15009F42DC1BB
:1012100080919600882309F440C281508093960003
:1012200081113BC21092950038C280918C008823B6
:1012300009F41BC1C0938D0042C28091910080FFD0
:101240009BC0E0918C0080918D00882309F48AC0B6
:10125000E150ED3008F081C00E2E000CFF0BEE5C6B
:10126000F64F09940CC015C01EC027C030C04BC03B
:1012700054C037C03EC05BC060C065C06AC08091CA
:10128000A3009091A40001969093A4008093A300E2
:1012900064C08091A5009091A60001969093A6004D
:1012A0008093A5005AC08091B3009091B40001963C
:1012B0009093B4008093B30050C08091A7009091A8
:1012C000A80001969093A8008093A70046C0809143
:1012D000A9009091AA0001969093AA008093A9007A
:1012E0003CC080919E008230C0F58F5F80939E004D
:1012F00034C08091AB009091AC0001969093AC000B
:101300008093AB002AC08091AD009091AE00019611
:101310009093AE008093AD0020C08091AF0090917B
:10132000B00001969093B0008093AF0016C08091FA
:10133000B1008F5F8093B10010C08091B2008F5FC9
:101340008093B2000AC08091B5008F5F8093B50092
:1013500004C080918E008F5F66D88BD820DAC0934E
:101360009600AFC1EF5FEE301CF4E0938C0002C03A
:1013700010928C0098D8F2CF8091910082FF81C1A9
:10138000E0918C0080918D00E150882309F468C0C1
:10139000ED3018F70E2E000CFF0BE053F64F0994BA
:1013A0000CC011C016C01BC024C03EC043C02BC01F
:1013B00031C046C049C04CC04FC08091A30090913D
:1013C000A400019761CF8091A5009091A60001979C
:1013D00065CF8091B3009091B400019769CF80915F
:1013E000A7009091A800181619060CF0B6CF019727
:1013F00069CF8091A9009091AA00181619060CF0E7
:10140000ACCF019769CF80919E00882309F4A5CFC6
:1014100081506CCF8091AB009091AC0018161906EA
:101420000CF09BCF01976ACF8091AD009091AE00F8
:1014300001976ECF8091AF009091B000019772CF6D
:101440008091B100815076CF8091B200815078CFE9
:101450008091B50081507ACF80918E0081507CCFF1
:10146000E7FF83CF30928C0085CF1DD81092970074
:1014700010929300109296008114910409F41ACDF1
:10148000BFD514CD80919600811150C010929C0060
:1014900080919C00811102C01092900004D810929B
:1014A00097008FE08093930083E080939600809173
:1014B00097008111E1CF82E08093970080E0A2D86D
:1014C00080919C00811188C08FE991E0B0D88AE3B7
:1014D000C8D8C091B600D091B700D7FD02C080E255
:1014E000C0D8CE013FD98FE2BCD8E0919D00F0E09A
:1014F000EE0FFF1FE156FF4F8081918133D98FEDB1
:10150000B0D881E07FD880919C00882309F49DC0E9
:1015100086E4A7D880918E0090918F00992309F4DA
:1015200073C0811171C08DE29CD86FC080919D0005
:101530008F5F823019F080939D00AACF10929D009A
:10154000A7CF8091910080FF27C080919C008823C5
:1015500009F180919D0090E0DC01AA0FBB1FA1560C
:10156000BF4F2D913C911197880F991FFC01EF58A7
:10157000FF4F808191812817390724F42F5F3F4F57
:101580002D933C9376D7109297008FE08093930031
:1015900081E08BCF88D7F7CF8091910082FF87CFF2
:1015A00080919C008823B1F380919D0090E0DC0144
:1015B000AA0FBB1FA156BF4F2D913C911197880FC9
:1015C000991FFC01E359FF4F808191818217930796
:1015D000CCF621503109D4CF60919D0061110AC031
:1015E00080919000882319F08AE991E06FCF85E916
:1015F00091E06CCF613019F480E991E067CF70E041
:1016000090E080E088D863CF80D88CE891E00FD854
:10161000C091CE00D091CF00D7FD02C080E221D88A
:10162000CE01A0D880918F008823C9F08AE219D812
:10163000E0919D00F0E0EE0FFF1FED55FF4F808120
:10164000918190D88FED0DD817CF80919D00811199
:1016500004C088E406D88EE267CF83E4FBCF8FE234
:10166000E6CF80919C0081110DCF81E080939C009A
:101670000FCF10928D0010928C0091D814D7DCE31C
:10168000C1E065E070E080E090E06ED68091980067
:10169000815009F4B8CD809398008091910081FF2A
:1016A000CCCD80918D00882309F4BFCD4DE150E071
:1016B00060E070E089E990E046D010928D006FD82C
:1016C000F2D6DCE3DECFE3EFF0E01382128285E6B0
:1016D00090E09183808386E084838FEF858387E029
:1016E000868382E0878383E0808784E0818785E04A
:1016F000828713861486158616861786E6EBF0E039
:1017000089E19CEF9183808313821282918F808F75
:10171000138E128E0895DC01CB01FC01E199FECFFE
:1017200006C0FFBBEEBBE09A31960DB20D92415060
:101730005040B8F70895E199FECF9FBB8EBBE09A69
:1017400099278DB30895DC01A40FB51F4150504077
:1017500040F0CB01840F951F2E9105D04150504091
:10176000D8F70895262FE199FECF9FBB8EBBE09A54
:1017700001970DB2021631F02DBB0FB6F894E29A24
:10178000E19A0FBE0895AA1BBB1B51E107C0AA1F17
:10179000BB1FA617B70710F0A61BB70B881F991F12
:1017A0005A95A9F780959095BC01CD01089597FBB6
:1017B000072E16F4009406D077FD08D0E4DF07FC6E
:1017C00005D03EF4909581959F4F08957095619551
:1017D0007F4F0895A1E21A2EAA1BBB1BFD010DC06D
:1017E000AA1FBB1FEE1FFF1FA217B307E407F507D1
:1017F00020F0A21BB30BE40BF50B661F771F881FAD
:10180000991F1A9469F760957095809590959B0142
:10181000AC01BD01CF010895052E97FB16F400948D
:101820000FD057FD05D0D6DF07FC02D046F408C024
:1018300050954095309521953F4F4F4F5F4F0895FC
:1018400090958095709561957F4F8F4F9F4F08952C
:10185000A29FB001B39FC001A39F01D0B29F700DA2
:10186000811D1124911D0895EE0FFF1F0590F49125
:08187000E02D0994F894FFCF6C
:10187800FF000000000F03E601360335033200962F
:10188800005E012C01536574206B6579732C207000
:0A189800726573733A00203D2000D2
:00000001FF
