:100000002FC153C152C151C150C14FC14EC14DC189
:100010004CC1EDC44AC149C148C147C132C545C1FF
:1000200044C143C142C1F5C3F7C3FFC306C40DC4F5
:1000300014C42BC432C419C420C437C43EC445C43C
:100040005AC45EC466C46AC46EC47AC47EC470C432
:1000500072C480C482C484C4FFC804C909C90EC95B
:1000600013C925C92AC916C91CC92DC930C933C924
:100070005CC965C96EC977C984C9A6C9AFC98FC92A
:1000800096C9B6C9BBC9C0C9A7038C036A03430399
:100090001603E302AD0274023A020102C90194019F
:1000A000630137010F01EB00CC00B1009A0085001D
:1000B0007400650058004C00A7038C036A034303D7
:1000C0001603E302AD0274023A020102C90194016F
:1000D000630137010F01EB00CC00B1009A008500ED
:1000E0007400650058004C003A200046616E2054B0
:1000F0006573740050617573650046616E207469A4
:100100006D6500576F726B0046616E2074696D6596
:100110000057617465722074DF00436F727265630B
:1001200074004169722074DF00436F7272656374FA
:10013000005468726573686F6C640046616E53703A
:1001400065656432005370656564206D61780046B2
:10015000616E0057617465720048797374657265E9
:10016000732E005461726765740048797374657208
:1001700065732E0054656D70005761726D696E670E
:10018000005761746572204D617800436F6F6C0099
:100190005761746572204D696E0048656174004551
:1001A0007869740053657475703A2000332E446F7B
:1001B000776E00322E4F6B00312E55700056616401
:1001C000696D204B756C616B6F7628632900312E49
:1001D00030300046616E636F696C2076002C573AB0
:1001E00000436F6F6C0048656174005761726D0069
:1001F0004F6666200053657474696E67732073617F
:100200007665642E00000000000000000000040578
:1002100007000000000000000000000000000000D7
:100220003800350032000000000037003400310093
:10023000040404040404040402020202020203038C
:10024000030303030202030102040810204080019B
:100250000204081020010204081020408040340BE2
:1002600011241FBECFE5D4E0DEBFCDBF10E0A0E675
:10027000B0E0E2E2F8E102C005900D92A638B107C5
:10028000D9F721E0A6E8B0E001C01D92A530B20781
:10029000E1F711E0C0E3D1E003C02197FE01B5DA38
:1002A000CF32D107D1F76ED4BACAAACE90E0FC0102
:1002B000E95BFD4F2491FC01E05DFD4F84918823B3
:1002C00099F090E0880F991FFC01EA5DFD4FA59120
:1002D000B491FC01E45EFD4F859194918FB7F89441
:1002E000EC91E22BEC938FBF089590E0FC01EB5F63
:1002F000FD4F3491FC01E95BFD4F2491FC01E05D71
:10030000FD4FE491EE2331F1332381F0353039F0A4
:10031000373049F0343051F48FB58F7702C08FB544
:100320008F7D8FBD03C085B58F7D85BDF0E0EE0F5D
:10033000FF1FE45EFD4FA591B4919FB7F894611142
:1003400005C08C91E22FE095E82302C0EC91E22BEE
:10035000EC939FBF08953FB7F8948091E900909186
:10036000EA00A091EB00B091EC0022B708B600FEC5
:1003700005C02F3F19F00196A11DB11D3FBFBA2F37
:10038000A92F982F8827820F911DA11DB11DBC0197
:10039000CD0143E0660F771F881F991F4A95D1F75B
:1003A00008958F929F92AF92BF92CF92DF92EF9279
:1003B000FF926B017C01CFDF4B015C01C114D104C2
:1003C000E104F104F9F08895A895C5DFDC01CB01C3
:1003D00088199909AA09BB09883E9340A105B1056E
:1003E00068F321E0C21AD108E108F10888EE880E0E
:1003F00083E0981EA11CB11CC114D104E104F104D6
:1004000021F7DCCFFF90EF90DF90CF90BF90AF90BF
:100410009F908F900895CF92DF92EF92FF920F936B
:100420001F93CF93DF936C017A018B01C0E0D0E082
:10043000CE15DF0581F0D8016D918D01D601ED91CA
:10044000FC910190F081E02DC6010995892B11F0F6
:100450002196EECF7E01C701DF91CF911F910F91C1
:10046000FF90EF90DF90CF900895909199008917B9
:1004700008F4982F80918A008917E9F090938A00F8
:10048000992319F08091AC0002C08091AD00809357
:100490008E0060E0913029F48AE027DF61E089E096
:1004A00009C089E0923019F420DF61E002C01DDF4D
:1004B00060E08AE01ACF0895CF9380919000811177
:1004C0000FC0C5E680918D00882351F06AE070E08E
:1004D00080E090E066DFC150A9F781E08093900052
:1004E00066E970E080E090E0CF915BCFCF93C8ECFD
:1004F00080918D00882341F0C15031F064E670E0B6
:1005000080E090E04EDFF4CF64E670E080E090E0C1
:10051000CF9147CF009761F0FC0101900020E9F7EF
:100520003197AF01481B590BBC018DEE90E073CFA2
:1005300080E090E008958F929F92AF92BF920F93C8
:100540001F93CF93DF93CDB7DEB7A1970FB6F89483
:10055000DEBF0FBECDBF19A2423008F44AE08E01C3
:100560000F5D1F4F842E912CA12CB12CA50194015D
:1005700002D9E62FB901CA0101501109EA3014F479
:10058000E05D01C0E95CD801EC93232B242B252BE3
:1005900069F7C801BFDFA1960FB6F894DEBF0FBEA2
:1005A000CDBFDF91CF911F910F91BF90AF909F90E2
:1005B0008F900895682F70E080E090E04AE0BBCF14
:1005C000CF93DF93EC0160E08E818FDE61E08E815E
:1005D0008CDE60E08E8189DE84EC90E00197F1F79B
:1005E000DF91CF910895CF92DF92EF92FF920F9318
:1005F0001F93CF93DF936C017C0187E0E80EF11C21
:10060000C0E0D0E0062F10E0B8010C2E02C07595B6
:1006100067950A94E2F76170F70181917F0165DEC9
:100620002196C430D10581F7C601DF91CF911F918A
:100630000F91FF90EF90DF90CF90C2CFCF92DF92DB
:10064000EF92FF920F931F93CF93DF93EC01F62E5F
:10065000642F8C814ADE8D818F3F11F060E045DE92
:100660008F850F2D10E084FF23C06E0187E0C80E38
:10067000D11CE12CF12CB8010E2C02C075956795A8
:100680000A94E2F76170F60181916F012EDEFFEFAF
:10069000EF1AFF0A88E0E816F10469F7CE01DF914E
:1006A000CF911F910F91FF90EF90DF90CF9088CF67
:1006B000B80184E0759567958A95E1F7CE0193DFDF
:1006C0006F2DCE01DF91CF911F910F91FF90EF9091
:1006D000DF90CF9088CF41E0B1DF81E090E00895D6
:1006E0000F931F93CF93DF938C01C0E0D0E0F8010C
:1006F000EC0FFD1F6491662331F041E08DEE90E038
:100700009DDF2196F4CFCE01DF91CF911F910F9104
:10071000089540E0682F8DEE90E090CF843008F08F
:1007200083E090910001891710F08FEF890FE82F77
:10073000F0E0E351FF4F84898068EBCF81E0E9DF8F
:1007400062E070E080E090E02CCE41E0682F8DEE1A
:1007500090E074DF81E090E00895CF92DF92EF9215
:10076000FF92CF93DF9397FF17C06B017C018DE25F
:10077000ECDFEC0166277727CB016C197D098E0928
:100780009F094AE0D8DE8C0F9D1FDF91CF91FF902B
:10079000EF90DF90CF9008954AE0DF91CF91FF90E6
:1007A000EF90DF90CF90C7CECF93DF93EC0197FF10
:1007B00005C08DE2CADFD195C195D109CE016AE0AD
:1007C00070E0C6D7EC01072E000C880B990BC5DF33
:1007D0008EE2BBDFBE01DD0F880B990BDF91CF915D
:1007E000BCCFCF92DF92EF92FF92A8DF84EA91E034
:1007F00077DFE0918800CE2EEE0FDD08EE08FF08CF
:100800008DE0C816D10408F065C0F601ED5EFF4F1B
:1008100009948FE991E007C08AE991E061DF81E006
:100820007DDF80E991E05CDF55C08BE891E058DF27
:1008300081E074DF81E891E0F6CF89E791E050DF55
:1008400081E06CDF84E791E0EECF8AE691E048DF5B
:1008500081E064DF83E691E0E6CF89E591E040DF67
:1008600081E05CDF83E591E0DECF8FE491E038DF6B
:1008700081E054DF85E491E0D6CF8BE391E030DF77
:1008800081E04CDF81E391E0CECF89E291E028DF87
:1008900081E044DF82E291E0C6CF8AE191E020DF8F
:1008A00081E03CDF81E191E0BECF88E091E018DF9C
:1008B00081E034DF83E091E0B6CF8AEF90E010DF93
:1008C00081E02CDF84EF90E0AECF8BEE90E008DF8C
:1008D00081E024DF80918900882309F448C088EEF4
:1008E00090E0FEDEF6013197EC30F10508F03FC0F4
:1008F000E05EFF4F099480919E0090919F0004C09C
:100900008091A0009091A100FF90EF90DF90CF9098
:100910004BCF8091AE009091AF00F6CF8091A200B6
:100920009091A300F1CF8091A4009091A500ECCF0D
:100930008091990017C08091A6009091A700E4CF04
:100940008091A8009091A900DFCF8091AA0090919A
:10095000AB00DACF8091AC0005C08091AD0002C041
:1009600080918A00FF90EF90DF90CF9023CEFF9090
:10097000EF90DF90CF9008954ED70F931F93CF93B2
:10098000DF938C01EB01DADE81E790E0C3DD81E0EB
:10099000C5DE809160008B3F30F464E670E080E05B
:1009A00090E0FFDCF6CFC8019BDE809160008B3FBA
:1009B00030F064E670E080E090E0F3DCF6CF68ECC5
:1009C00070E080E090E0EDDC60916000CE019BD6AD
:1009D00082E890E09FDD80916000ECDD68E873E1E3
:1009E00080E090E0DF91CF911F910F91DACC1F92C0
:1009F0000F920FB60F9211242F933F938F939F93D3
:100A0000AF93BF938091E5009091E600A091E7003D
:100A1000B091E8003091E40026E0230F2D3720F458
:100A20000296A11DB11D05C029E8230F0396A11D43
:100A3000B11D2093E4008093E5009093E600A0931D
:100A4000E700B093E8008091E9009091EA00A0915E
:100A5000EB00B091EC000196A11DB11D8093E9005F
:100A60009093EA00A093EB00B093EC00BF91AF919C
:100A70009F918F913F912F910F900FBE0F901F90DC
:100A800018951F920F920FB60F9211242F933F9338
:100A90004F935F936F937F938F939F93EF93FF9306
:100AA00024B185B190E0982F8827820F911DE091A5
:100AB0008700E23088F421E02E0F20938700F0E0D9
:100AC000EE0FFF1FE052FF4F91838083223011F021
:100AD00081E447C082E445C09695879596958795B1
:100AE00080936000AC01552720919400622F70E044
:100AF0006417750724F4382F321B232F01C0281BDD
:100B00002031F0F020919500622F70E06417750796
:100B100024F4382F321B232F01C0281B203190F0E2
:100B200020919600622F70E06417750724F4821BF1
:100B3000803150F003C0281B203130F080E005C028
:100B400081E003C082E001C084E0909186008913B7
:100B500003C080938D0002C08093860010928700AE
:100B600080E487B9369AFF91EF919F918F917F91A1
:100B70006F915F914F913F912F910F900FBE0F900A
:100B80001F901895789483B7826083BF83B7816084
:100B900083BF89B7816089BF1EBC8EB582608EBD60
:100BA0008EB581608EBD8FB581608FBD85B5846047
:100BB00085BD85B5806485BD329A319A3098379A63
:100BC0001AB885B7806885BF9FE088E10FB6F894B2
:100BD000A89581BD0FBE91BDAA9A89E067DB8AE026
:100BE00065DB1092870090E497B98FEC86B980910D
:100BF000FC0088608093FC0082E0809300011092EA
:100C000001019093020180E18093030180E58093CC
:100C100004018091F1004ADB8091F2008F3F09F0DE
:100C200045DB8091F30042DBCDEED0E09E012D5EEE
:100C300030408091FC0084FD03C084E090E002C05D
:100C400088E090E02196281739071CF48E812EDB6E
:100C5000EDCF62E370E080E090E0A3DB60E08091A4
:100C6000F10043DB60E08091F3003FDB8091F20014
:100C70008F3F11F060E039DB8091FC0084FD1FC0E4
:100C800063E08DEE90E0AFDC65E070E080E090E046
:100C900088DB63E08DEE90E0A6DC65E070E080E04C
:100CA00090E07FDB63E08DEE90E09DDC88E291E0F8
:100CB0000197F1F762E08DEE90E095DC12C0806262
:100CC00028DD84E293E20197F1F78091FC008062D5
:100CD00020DD88E291E00197F1F78091FC008062CD
:100CE00018DD8091FC00806214DD84E08093FD00BB
:100CF0008CE00FDD23DDC2E0C093FE0086E009DD5D
:100D000083ED91E0EDDC8EEC91E0EADC81E006DD44
:100D10008DEB91E0E5DC84E090E0DED48F3F09F0DC
:100D200046C08CE1E4E9F0E0DF011D928A95E9F725
:100D300080EF90E090939B0080939A0088EC90E085
:100D400090939D0080939C0082E291E090939F009D
:100D500080939E008EEB90E09093A1008093A00082
:100D60008AEA90E09093AF008093AE008AE090E032
:100D70009093A3008093A2008FE090E09093A50051
:100D80008093A400C093990089E190E09093A7001C
:100D90008093A6008EE18093AC008CE38093AD003D
:100DA0004CE150E060E070E0CF019ED404C080913F
:100DB00060008A3078F460E070E088EB91E0DDDD7F
:100DC00061E070E083EB91E0D8DD62E070E08CEAF6
:100DD00091E0D3DD1092860010928D004CE150E03E
:100DE00060E070E084E990E067D485E08093920051
:100DF00061E070E080E090E0D4DA8091E0009091D2
:100E0000E10028EB30E03093B9002093B80027E1EF
:100E10002093BA00EDEBF0E081939193B0E0E73CD2
:100E2000FB07D1F79C01220F331F220F331F280F1E
:100E3000391F3093BC002093BB0080959095909310
:100E4000B3008093B2001092C7008091E2009091AD
:100E5000E30028E830E03093D1002093D00027E170
:100E60002093D200E5EDF0E02FED30E081939193F7
:100E70002E173F07D9F79C01220F331F220F331F74
:100E8000280F391F3093D4002093D300809590957C
:100E90009093CB008093CA001092DF00FCE06F2E8D
:100EA000A5E04A2E512CB0E02B2EB0E03B2ECCE03A
:100EB0007C2ED8EC8D2E7FE0972E65E070E080E0F0
:100EC00090E06FDA50EEA52E50E0B52EC0EBD0E0EA
:100ED00068EAC62E60E0D62EE12CF12CF894F501DC
:100EE000219131915F0178946F898B859C85820F68
:100EF000931F6E9CF0016F9CF00D1124E60FF11D05
:100F0000EE0FFF1FE055FF4F45855685841B950B5F
:100F10009C878B87368725876F5F653011F06F8BD5
:100F200001C01F8AB20100D48A819B8168177907AA
:100F300009F462C07B836A830A8510E0412F50E088
:100F4000802F90E09C01241B350BA885B9852230A9
:100F5000310594F0840F951F95958795FC01EE0F50
:100F6000FF1FEA0FFB1F259134912617370710F456
:100F7000082FE6CF182FE2CFFA01EE0FFF1FEA0F7E
:100F8000FB1F259134912617370748F4F2E31F9F82
:100F9000C00111248A5F9109998388832DC0FC01C7
:100FA000EE0FFF1FEA0FFB1F4591549182E3089F4C
:100FB000800111246417750718F4065911091AC025
:100FC000F901E41BF50B085C1109309799F09B01BE
:100FD000241B350BA2E3B0E00CD49F013695279576
:100FE000620F731F811D911D9F0140E050E0E5D30A
:100FF000021B130B19830883D6018D919D916D01FE
:1010000028813981820F931F99838883BFEFEB1A60
:10101000FB0A6896E2E0EE16F10409F05FCF8091DA
:101020009300815019F080939300B1C08092930097
:1010300080919200882319F08150809392008091D2
:101040009100882331F0815080939100882309F426
:10105000E1C280918F00882331F0815080938F000E
:10106000882309F4DAC280918E00882319F0815018
:1010700080938E0080919700811109C080918A0031
:10108000882311F080E0F1D910928E0080C0609129
:10109000C8007091C900B09198002B2F30E0F90181
:1010A000EE0FFF1FE256FF4F80819181AB01481B7D
:1010B000590BCA01B13019F491958195910940916C
:1010C000A4005091A500841795071CF010928B0086
:1010D00006C0181619061CF081E080938B008091E1
:1010E000B0009091B100A0918B00AA2349F0B111FA
:1010F00007C0E091AE00F091AF00E817F90724F4C3
:10110000E0918C00EE2391F0480F591FE1E0461763
:1011100057070CF0E0E0E0938C00AA2329F0A1E04F
:10112000461757070CF4A0E0A0938B0040918E0067
:1011300041112DC040918B00411112C0220F331F6D
:10114000F901E656FF4F20813181821B930BB130AC
:1011500019F491958195910997FD04C010928C0026
:1011600080E014C09195819591092091A200309161
:10117000A300281739075CF42091A6003091A7003E
:101180002817390714F482E001C081E06ED98091FC
:101190008D0081FF51C1CEE180918D00882309F43B
:1011A00097C1C15009F048C210928900109288007E
:1011B00018DB9CD9DCE3C1E065E070E080E090E002
:1011C000F0D880919300815081F480929300D150A7
:1011D00009F42AC180919100882349F081508093BD
:1011E0009100882309F43DC202C08093930080914E
:1011F0008D0081FF18C080918900882351F04CE157
:1012000050E060E070E084E990E06ED210928900D6
:1012100007C080918800882309F406C1C093890023
:10122000E0DA64D967C080918D0080FF65C080914D
:101230008900E0918800882309F451C08E2FEE0FB9
:10124000990BAA0BBB0BFC013197EC30F10508F0B0
:10125000DFC0E45DFF4F099480919E0090919F0054
:10126000019668C08091A0009091A10001966CC089
:101270008091AE009091AF00019670C08091A20065
:101280009091A300019678C08091A4009091A50050
:10129000019680C080919900823008F0B9C08F5FBC
:1012A00083C08091A6009091A700019688C080918C
:1012B000A8009091A90001968CC08091AA009091FD
:1012C000AB00019690C08091AC008F5F94C080917C
:1012D000AD008F5F96C080918A008F5F98C081E0DB
:1012E0008E0F8D300CF49AC010928800FFD879DAF6
:1012F000C0939100DCE360CF80918D0082FF5CCFD2
:1013000080918900E0918800882309F483C08E2FA2
:10131000EE0F990BAA0BBB0BFC013197EC30F105DA
:1013200008F076C0E85CFF4F099480919E00909190
:101330009F00019790939F0080939E0069C08091C9
:10134000A0009091A10001979093A1008093A0002C
:101350005FC08091AE009091AF0001979093AF0075
:101360008093AE0055C08091A2009091A300181602
:1013700019060CF04DC001979093A3008093A20032
:1013800047C08091A4009091A500181619060CF092
:101390003FC001979093A5008093A40039C080912D
:1013A00099008823A9F181508093990031C08091E0
:1013B000A6009091A7001816190654F5019790936E
:1013C000A7008093A60024C08091A8009091A90056
:1013D00001979093A9008093A8001AC08091AA0059
:1013E0009091AB0001979093AB008093AA0010C03E
:1013F0008091AC0081508093AC000AC08091AD0018
:1014000081508093AD0004C080918A0081502DD816
:1014100053D86DCF8FEF8E0F87FD03C08093880068
:1014200065CF7092880062CF61D8109292001092BE
:101430008F0010929100E8C080918D0080FF1FC046
:1014400080919700882319F18091980090E0DC0149
:10145000AA0FBB1FA656BF4F2D913C911197880F25
:10146000991FFC01E359FF4F8081918128173907AB
:1014700024F42F5F3F4F2D933C931ED809C08091D9
:101480008D0082FF3EC080919700811109C02ED847
:101490001092920090928F0081E08093910031C071
:1014A0008091980090E0DC01AA0FBB1FA656BF4FA9
:1014B0002D913C911197880F991FFC01E759FF4F1F
:1014C0008081918182179307C4F621503109D3CFCF
:1014D00080919700882309F4C0C080919100811108
:1014E000B1C01092970080919700811102C01092B4
:1014F0008C00FCD71092920090928F0053E0509392
:1015000091008091920081117FC082E080939200CF
:1015100080E004D980919700811103C080EF91E0B1
:1015200012C06091980061110AC080918C008111F5
:1015300003C086EE91E007C08BEE91E004C06130FD
:1015400021F481EE91E0CCD804C070E080E090E01E
:1015500004D98AE3FAD8C091B000D091B100D7FD88
:1015600002C080E2F2D8CE011FD98FE2EED8E0911E
:101570009800F0E0EE0FFF1FE656FF4F808191814B
:1015800013D98FEDE2D881E0C9D8809197008823E4
:1015900081F086E4DAD880918B00882331F0809145
:1015A0008A00811102C08DE20DC080918A0002D8AC
:1015B0000AC080919800882311F083E401C088E478
:1015C000C4D88EE2C2D88DED91E08AD8C091C8000F
:1015D000D091C900D7FD02C080E2B7D8CE01E4D8CF
:1015E00080918B00811102C08FE201C08AE2ADD8E8
:1015F000E0919800F0E0EE0FFF1FE256FF4F808170
:101600009181D2D88FEDA1D82114310409F455CCA1
:10161000F7D451CC109290001CCD90D84CE150E002
:1016200060E070E084E990E05FD085EF91E058D809
:1016300082E08093920017CD64E670E080E090E055
:10164000B0D6AACD809198008F5F823019F0809338
:10165000980049CF1092980046CF81E08093970080
:1016600042CF10929000C3CDEDEEF0E013821282D3
:1016700085E690E09183808386E084838FEF858385
:1016800087E0868382E0878383E0808784E08187A8
:1016900085E0828713861486158616861786E0EB0A
:1016A000F0E089E19CEF9183808313821282918F15
:1016B000808F138E128E0895DC01CB01FC01E1991D
:1016C000FECF06C0FFBBEEBBE09A31960DB20D9285
:1016D00041505040B8F70895E199FECF9FBB8EBBB3
:1016E000E09A99278DB30895DC01A40FB51F4150EE
:1016F000504040F0CB01840F951F2E9105D04150F2
:101700005040D8F70895262FE199FECF9FBB8EBB9E
:10171000E09A01970DB2021631F02DBB0FB6F89486
:10172000E29AE19A0FBE0895AA1BBB1B51E107C0C4
:10173000AA1FBB1FA617B70710F0A61BB70B881F61
:10174000991F5A95A9F780959095BC01CD010895F0
:1017500097FB072E16F4009406D077FD08D0E4DF3F
:1017600007FC05D03EF4909581959F4F08957095A4
:1017700061957F4F0895A1E21A2EAA1BBB1BFD01A4
:101780000DC0AA1FBB1FEE1FFF1FA217B307E40760
:10179000F50720F0A21BB30BE40BF50B661F771FB8
:1017A000881F991F1A9469F7609570958095909598
:1017B0009B01AC01BD01CF010895052E97FB16F4E6
:1017C00000940FD057FD05D0D6DF07FC02D046F4B9
:1017D00008C050954095309521953F4F4F4F5F4F32
:1017E000089590958095709561957F4F8F4F9F4F8D
:1017F0000895A29FB001B39FC001A39F01D0B29FE3
:10180000700D811D1124911D0895EE0FFF1F05908D
:10181000F491E02D099481E090E0F89400C0F894F0
:02182000FFCFF8
:10182200FF000000006B030B02320096005E012CE9
:1018320001536574206B6579732C20707265737324
:061842003A00203D2000E9
:00000001FF
